:020000040801F1
:10200000D8070020D53801084FB502084FB502089F
:10201000FDCE02084FB502084FB502084FB50208C1
:102020004FB502084FB502084FB50208816E03088C
:102030004FB5020848910308256E0308A1740308F0
:102040004FB502084FB502084FB502084FB5020858
:102050004FB502084FB502084FB502084FB5020848
:102060004FB502084FB502084FB502089934010870
:1020700061B402084FB502084FB502084FB5020817
:102080004FB502084FB502084FB502084FB5020818
:102090004FB502086D4301084FB502084FB502085D
:1020A0004FB50208793F0108593F01084FB50208B2
:1020B0004FB502089D830208498E0208E9330308E0
:1020C000E5330308D9850208FF330308ED3303081D
:1020D000198E0208F1330308898E0208F18E020876
:1020E0004FB502084FB502084FB502084FB50208B8
:1020F00043C302084FB502084FB502084FB50208A6
:102100004FB502084FB502084FB502084FB5020897
:102110004FB502084FB502084FB502084FB5020887
:102120004FB502084FB502084FB502084FB5020877
:102130004FB502084FB502084FB502084FB5020867
:102140004FB502081D6A01084FB502084374030821
:102150000D6902084FB50208D3330308D9330308C9
:102160004FB502084FB502084FB502084FB5020837
:1021700007B588B10BA3D3E900230949C1E90223BC
:10218000CDE900234FF0FF324FF0FF33086920F014
:1021900002FC03B05DF804FB00220023EDE700BF62
:1021A000F80700200DD50155200000000348044B1E
:1021B000834202D0034B03B118477047F03300202D
:1021C000F033002000000000064B0749C91A8910AF
:1021D00048BF0131491003D0044B0BB101481847E7
:1021E000704700BFF0330020F033002000000000F3
:1021F00010B5064C237843B9FFF7D8FF044B13B151
:102200000448AFF300800123237010BD662D002029
:102210000000000084EB030808B5054B1BB105491D
:102220000548AFF30080BDE80840FFF7CDBF00BF11
:1022300000000000580A002084EB0308A3F5803A50
:10224000704700BF174B002B08BF134B9D46FFF78D
:10225000F5FF00218B460F461348144A121A21F04D
:102260008DF90E4B002B00D098470D4B002B00D062
:1022700098470020002104000D000D48002802D0DE
:102280000C48AFF3008017F0CFF9200029001AF0B6
:1022900053FE17F033F800BF0000080000000000F4
:1022A00000000000D8070020D807002020300020C0
:1022B000000000000000000030B585B00DF10B05F6
:1022C000012200211D20009503AB0CF0EDFF044618
:1022D000C8B92A4601211D200DF042F8044690B9E4
:1022E000032001F0EFF970B1084D094928681AF090
:1022F0007AF819F0BEF819F0BDF89DF80B200549E1
:1023000028681AF070F8204605B030BDB40C0020E3
:10231000F8860308FD860308014B186819F061B9B7
:102320006030002037B500F00BFF002847D0254B68
:10233000186819F04DF908B101283ED18DF8070051
:10234000012200211D200DF107030CF0DDFF0446E2
:10235000B0B9032001F0B6F970B11B4C1B492068DD
:102360001AF041F819F085F819F084F89DF8072063
:10237000174920681AF037F8FFF79EFF0446F0B1BE
:10238000012001F09FF9D0B10F4D124928681AF0D1
:102390002AF819F06EF819F06DF823460E4A0F4925
:1023A00028681AF020F8204601F0D2F90C49286874
:1023B00003B0BDE830401AF016B80124E0E703B0DE
:1023C00030BD00BF60300020B40C0020F886030848
:1023D0001887030833870308388703083B870308F7
:1023E0001D8A030870B50368984A23F47F4323F0DD
:1023F00007039342044686B000F0448375D8944A9C
:10240000934200F01E840BD8A2F50022934200F004
:10241000C88002F5A022934200F06A8206B070BD27
:102420008C4A9342FAD1032001F04CF960B18A4DF5
:102430008A49286819F0D7FF19F01BF819F01AF823
:102440008749286819F0CFFF032001F03BF968B1F4
:10245000814D8249286819F0C6FF19F00AF819F071
:1024600009F8A2797F49286819F0BDFF032001F01F
:1024700029F968B1784D7949286819F0B4FF18F046
:10248000F8FF18F0F7FFA2887749286819F0ABFF2A
:10249000764C022120780FF027FB0546002800F03B
:1024A00006846D4C7249206819F09DFF71492068BF
:1024B00019F099FF18F0DDFF18F0DCFF6E4B6F4A42
:1024C00000936F49D423206819F08DFF6D492B4686
:1024D0006D4A206819F087FF284601F039F96B49E9
:1024E000206819F080FF00BEFDE7694A934200F0C2
:1024F000618302F14172934200F0268402F17C4232
:1025000093428BD1B0F805301D2B87D1032001F009
:10251000D9F860B1504D5149286819F064FF18F09E
:10252000A8FF18F0A7FF5B49286819F05CFF238912
:102530000320DB0740F1338501F0C4F860B1464C5D
:102540004649206819F04FFF18F093FF18F092FFEA
:102550005149206819F047FFFFF7AEFE04460028F6
:102560003FF45CAF012001F0ADF800283FF456AF16
:10257000394D4A49286819F036FF18F07AFF18F0EB
:1025800079FF40492346404A286819F02CFF20462D
:1025900001F0DEF84249286806B0BDE8704019F045
:1025A00022BF324E30460FF065FA054618B32A4C6A
:1025B0002F49206819F017FF2E49206819F013FFE2
:1025C00018F057FF18F056FF2B4B2C4A00932C495C
:1025D0006523206819F007FF2A492B462A4A2068FC
:1025E00019F001FF284601F0B3F82849206819F0D6
:1025F000FAFE00BEFDE7022130780FF075FA0546BD
:1026000000284FD0144C1A49206819F0ECFE1949E3
:10261000206819F0E8FE18F02CFF18F02BFF164B7D
:10262000164A009316496A23206819F0DCFE154902
:102630002B46154A206819F0D6FE284601F088F886
:102640001249206819F0CFFE00BEFDE7A000060287
:10265000A0000900A0000601B40C0020F8860308C1
:10266000B18A030805890308C58A0308C43300201A
:102670001C8A030850870308598C030855870308F0
:10268000618703083B870308388703086D870308C1
:10269000A0000604048C03082A8C0308338703086F
:1026A0001D8A0308A02200900346114630780FF0DF
:1026B000FBF9054618B37A4C7A49206819F093FE65
:1026C0007949206819F08FFE18F0D3FE18F0D2FE79
:1026D000764B774A009377497323206819F083FE7D
:1026E00075492B46754A206819F07DFE284601F091
:1026F0002FF87349206819F076FE00BEFDE702212D
:1027000030780FF005FA054618B3654C6549206826
:1027100019F069FE6449206819F065FE18F0A9FEF9
:1027200018F0A8FE614B624A009362497823206842
:1027300019F059FE60492B46604A206819F053FE93
:10274000284601F005F85E49206819F04CFE00BEED
:10275000FDE75C4B186818F040FF032000F0B2FF63
:1027600060B14F4D5849286819F03DFE18F081FEC0
:1027700018F080FE5549286819F035FE032000F056
:10278000A1FF68B1464D5049286819F02CFE18F099
:1027900070FE18F06FFEA2884D49286819F023FEDC
:1027A000032000F08FFF68B13D4D4749286819F0BC
:1027B0001AFE18F05EFE18F05DFEE28845492868B2
:1027C00019F011FE032000F07DFF68B1344D3E4941
:1027D000286819F008FE18F04CFE18F04BFE22890C
:1027E0003D49286819F0FFFD032000F06BFF68B138
:1027F0002B4D3549286819F0F6FD18F03AFE18F00F
:1028000039FE62893549286819F0EDFD032000F092
:1028100059FF68B1224D2C49286819F0E4FD18F0E1
:1028200028FE18F027FEE2682D49286819F0DBFD24
:10283000032000F047FF68B1194D2349286819F0BB
:10284000D2FD18F016FE18F015FE228A25492868D8
:1028500019F0C9FD032000F035FF70B1104D1A4981
:10286000286819F0C0FD18F004FE18F003FED4F833
:1028700012201D49286819F0B6FD032000F022FF40
:1028800000283FF4CBAD064C0F49206819F0ABFD92
:1028900018F0EFFD18F0EEFD144920687CE600BF4B
:1028A000B40C00201C8A030850870308598C0308C5
:1028B00055870308618703083B87030838870308A7
:1028C0006D87030860300020F88603087E870308C0
:1028D00096870308AC870308C2870308D8870308D4
:1028E000ED870308018803081B8803082D88030867
:1028F000032000F0E7FE60B19C4D9D49286819F067
:1029000072FD18F0B6FD18F0B5FD9A49286819F067
:102910006AFD032000F0D6FEB0B1944D94492868BA
:1029200019F061FD18F0A5FD18F0A4FD2379924976
:10293000039363790293A3790193E3790093237A54
:10294000627A286819F04FFDA37A0320022B7BD10D
:1029500000F0B8FE60B1854D8549286819F043FD47
:1029600018F087FD18F086FD8449286819F03BFDB2
:10297000E37A0320002B76D100F0A4FE60B17B4DFA
:102980007B49286819F02FFD18F073FD18F072FDCF
:102990007B49286819F027FD032000F093FE68B1F9
:1029A000724D7349286819F01EFD18F062FD18F089
:1029B00061FD227B7349286819F015FD032000F0A2
:1029C00081FE68B1694D6A49286819F00CFD18F05C
:1029D00050FD18F04FFD627B6B49286819F003FD2C
:1029E000032000F06FFE68B1604D6149286819F05E
:1029F000FAFC18F03EFD18F03DFDA27B6349286803
:102A000019F0F1FC032000F05DFE60B1574C58490D
:102A1000206819F0E8FC18F02CFD18F02BFD5C493B
:102A2000206819F0E0FC032000F04CFE00283FF481
:102A3000F5AC4E4C4E49206819F0D5FC18F019FD44
:102A400018F018FD534928E700F03CFE00288FD00D
:102A5000464D4749286819F0C6FC18F00AFD18F0E1
:102A600009FD4D4981E700F02DFE002894D03F4D2F
:102A70003F49286819F0B7FC18F0FBFC18F0FAFC85
:102A8000464986E7032000F01DFE60B1374D384906
:102A9000286819F0A8FC18F0ECFC18F0EBFC404991
:102AA000286819F0A0FC032000F00CFE68B12F4D3F
:102AB0002F49286819F097FC18F0DBFC18F0DAFCB5
:102AC00022793049286819F08EFC032000F0FAFDC5
:102AD00070B1264D2649286819F085FC18F0C9FC0C
:102AE00018F0C8FCB4F805202E49286819F07BFCC2
:102AF000032000F0E7FD70B11C4D1D49286819F056
:102B000072FC18F0B6FC18F0B5FCB4F807202649A2
:102B1000286819F068FC032000F0D4FD70B1134D53
:102B20001349286819F05FFC18F0A3FC18F0A2FC08
:102B3000B4F809201D49286819F055FC032000F05D
:102B4000C1FD00283FF46AAC084D0949286819F016
:102B50004AFC18F08EFC18F08DFCE27A14492868C3
:102B600006B0BDE8704019F03EBC00BFB40C0020B8
:102B7000F886030845880308598803088B880308EA
:102B8000DE880308058903081F8903083A890308BA
:102B90005189030874890308BF880308F388030870
:102BA0008A890308B8890308DF890308FA890308BA
:102BB0001E8A0308032000F085FD60B1524D534981
:102BC000286819F010FC18F054FC18F053FC504918
:102BD000286819F008FC032000F074FD68B14A4D24
:102BE0004A49286819F0FFFB18F043FC18F042FC32
:102BF00022794849286819F0F6FB63790320012BF4
:102C00000FD100F05FFD00283FF408AC3E4C3F4977
:102C1000206819F0E8FB18F02CFC18F02BFC3E495A
:102C20003BE600F04FFD00283FF4F8AB364C374947
:102C3000206819F0D8FB18F01CFC18F01BFC374971
:102C40002BE6032000F03EFD60B12F4D2F49286890
:102C500019F0C9FB18F00DFC18F00CFC304928687D
:102C600019F0C1FB032000F02DFD68B1264D274966
:102C7000286819F0B8FB18F0FCFB18F0FBFB227970
:102C80002449286819F0AFFB032000F01BFD002841
:102C90003FF4C4AB1C4D1D49286819F0A4FB18F083
:102CA000E8FB18F0E7FBB4F805201E4957E70221BE
:102CB00020780EF02DFF054600283FF4AFAB124CF4
:102CC0001949206819F08FFB1849206819F08BFB0F
:102CD00018F0CFFB18F0CEFB154B164A009316499F
:102CE000D923206819F07FFB14492B46144A206829
:102CF00019F079FB284600F02BFD1249206819F0E5
:102D000072FB00BEFDE700BFB40C0020F88603088C
:102D1000348A0308058903084D8A0308658A030875
:102D20007D8A03089A8A03081C8A030850870308CF
:102D3000598C030855870308618703083B870308FC
:102D4000388703086D870308B0F805301B2B7FF424
:102D500065AB032000F0B6FC60B1994D9949286835
:102D600019F041FB18F085FB18F084FB96492868A0
:102D700019F039FB032000F0A5FC60B1904D91499A
:102D8000286819F030FB18F074FB18F073FB8F49BA
:102D9000286819F028FB032000F094FC68B1884DE6
:102DA0008849286819F01FFB18F063FB18F062FBD4
:102DB00022798749286819F016FB032000F082FC6D
:102DC00070B17F4D7F49286819F00DFB18F051FB59
:102DD00018F050FBB4F805207E49286819F003FB71
:102DE000032000F06FFC68B1754D7649286819F032
:102DF000FAFA18F03EFB18F03DFBE27976492868B4
:102E000019F0F1FA032000F05DFC68B16C4D6D49DA
:102E1000286819F0E8FA18F02CFB18F02BFB22892F
:102E20006E49286819F0DFFA03206689257B00F0D7
:102E300049FC68B1624C6349206819F0D4FA18F073
:102E400018FB18F017FB32466549206819F0CBFAD9
:102E5000032000F037FC68B1594C5A49206819F03A
:102E6000C2FA18F006FB18F005FB2A465D492068F7
:102E700019F0B9FA032000F025FC60B1504C51491B
:102E8000206819F0B0FA18F0F4FA18F0F3FA56497D
:102E9000206819F0A8FA0DF1130300930122002114
:102EA0001B2005AB0CF000FA044660BB032000F0C9
:102EB00009FC70B1424C4349206819F094FA18F0AB
:102EC000D8FA18F0D7FA9DF813204849206819F06D
:102ED0008AFA9DF81330002B33D1454B186818F04F
:102EE00057FC032000F0EEFB00283FF497AA344C77
:102EF0003449206819F077FA18F0BBFA18F0BAFADA
:102F00003C49206819E0012000F0DCFB00283FF478
:102F100085AA2B4D3849286819F065FA18F0A9FAE6
:102F200018F0A8FA35492346354A286819F05BFAA3
:102F3000204600F00DFC3349286819F054FAFFF7D9
:102F40006DBA012B14D12A4B186818F01EFC03200F
:102F500000F0B8FB00283FF461AA194C1949206819
:102F600019F041FA18F085FA18F084FA2649C8E7F2
:102F7000012000F0A7FB00283FF450AA104C1E4986
:102F8000206819F030FA18F074FA18F073FA9DF806
:102F900013201E49206819F026FAFFF73FBA00F007
:102FA00091FB00283FF43AAA054C0649206819F025
:102FB0001AFA18F05EFA18F05DFA15496DE400BFD0
:102FC000B40C0020F8860308D88A0308058B030890
:102FD00005890308248B0308418B03085E8B0308D3
:102FE0006D8B03087D8B03088B8B0308B28B030862
:102FF00064300020D08B0308338703083B87030825
:10300000388703081D8A0308DA8B0308E38B03085B
:10301000418C0308034B1B68834201D100F07AB84E
:10302000704700BF6030002013B52B4B4FF4007287
:1030300001931823294900932948002325F03FFADA
:1030400001281FD0274C2849206819F0CCF92749BE
:10305000206819F0C8F918F00CFA18F00BFA244B94
:10306000244A009324494123206819F0BCF92349DC
:10307000234A206819F0B7F92249206819F0B3F9FA
:1030800000BEFDE700214FF6FF7025F071F91E4BE1
:103090001860F8B9134C1449206819F0A4F91349C1
:1030A000206819F0A0F918F0E4F918F0E3F9104BD2
:1030B000104A009310494423206819F094F90F49ED
:1030C000124A206819F08FF91149206819F08BF91C
:1030D00000BEFDE702B010BD740A0020688C030832
:1030E00089B30208B40C00201C8A03085087030827
:1030F000068D0308718C030861870308918C03080F
:10310000838C0308A98C0308700A0020CB8C030869
:10311000E48C0308002307B50193084B01A9186844
:1031200024F06BFF019B2BB14FF0E0234FF0805256
:10313000C3F8042D03B05DF804FB00BF700A002043
:1031400008B5054B4FF0FF31186824F0BAFF431E55
:103150005842584108BD00BF700A002030B50368CE
:103160007E4A23F47F4323F00703934289B040F063
:10317000F380062200211620794B0CF0C5F8044696
:1031800018B3784D7849286819F02DF977492868DF
:1031900019F029F918F06DF918F06CF9744B754AAB
:1031A000009375496C23286819F01DF9734923466B
:1031B000734A286819F017F9204600F0C9FA7149D6
:1031C000286819F010F900BEFDE701460822122018
:1031D0006D4B0CF099F8044618B3624D62492868AB
:1031E00019F001F96149286819F0FDF818F041F962
:1031F00018F040F95E4B5F4A00935F4978232868D6
:1032000019F0F1F85D4923465D4A286819F0EBF89A
:10321000204600F09DFA5B49286819F0E4F800BEEA
:10322000FDE7014603221420584B0CF06DF80546CB
:1032300018B34C4C4C49206819F0D5F84B4920681C
:1032400019F0D1F818F015F918F014F9484B494A5B
:10325000009349498623206819F0C5F847492B4651
:10326000474A206819F0BFF8284600F071FA45492E
:10327000206819F0B8F800BEFDE70DF10F0104A8B1
:103280000EF06AFC044618B3364D3749286819F029
:10329000AAF83649286819F0A6F818F0EAF818F0E4
:1032A000E9F8334B334A009333499523286819F0E2
:1032B0009AF832492346324A286819F094F8204691
:1032C00000F046FA2F49286819F08DF800BEFDE796
:1032D000BDF8143001465BBAADF818309DF81330D4
:1032E00008228DF81A30FF238DF81B30FE238DF84D
:1032F0001C309DF8123018208DF81D30BDF81030AC
:103300005BBAADF81E3006AB0BF0FEFF054618B3F6
:10331000144C1549206819F066F81449206819F012
:1033200062F818F0A6F818F0A5F8114B114A0093AE
:103330001149A523206819F056F810492B46104A68
:10334000206819F050F8284600F002FA0D4920686C
:1033500019F049F800BEFDE709B030BDA00001003A
:10336000838D0308B40C00201C8A030850870308CF
:10337000438D0308128D0308618703083B87030808
:10338000388703086D8703087B8D0308788D030851
:10339000064B1B681A7A022A04D812B11B68044A29
:1033A00013607047032AF9D0704700BF2C3000200B
:1033B000780A002030B5204DA3B00BAC0FCD0FC460
:1033C00095E80F0084E80F000023CDE90233049351
:1033D000CDE90733CDE91F3309934FF4702313ACC4
:1033E000019301AD0FCD0FC4144B06AD2360144BF8
:1033F00018AC06930FCD0FC4124B13A92360124BC8
:103400000BAA1D9320231E9301238DF87D300F4BB3
:103410000F4821930F4B04F039F804469DF87F3094
:103420004FF4E130002B0CBF0321002118F081F88C
:10343000204623B030BD00BF509003083C00015B24
:1034400001000F004400015B672D00204030002088
:10345000040C00207C0A002029B9074B1868036877
:103460004BB104F0ABBC012905D1034B18680368CC
:103470000BB119F009BA70475430002008B504495F
:10348000044804F08FFDBDE80840FFF793BF00BF7C
:1034900058300020300C0020014818F0D2BF00BF87
:1034A000040C0020014818F08EB800BF709003088B
:1034B000014818F067B900BF8890030818B1034BA2
:1034C0001860002070472520704700BF380C00208E
:1034D00010B5054C0549206801F012F92068BDE8D7
:1034E0001040FFF7EBBF00BF943100206830002090
:1034F000014B1868704700BF380C0020044B834212
:1035000005D1044B1B7813B1C8B20EF015BB704740
:10351000A00C0020872D002030B5002503685A4AF2
:1035200023F47F4323F0070385B0934204460295BA
:10353000ADF80C5000F0828002F1C06202F58022EA
:1035400093420DD0514A934240F09C80504B1B78DF
:10355000002B00F0978005B0BDE8304019F03EBD6B
:10356000B0F80530212B40F08D80FF2304A91A46C6
:1035700011E9030017F076FF012814BF41F2FC1592
:10358000434B05F0FC0208BF1870212120790BF095
:10359000D1FE054618B33F4C3F49206818F023FF81
:1035A0003E49206818F01FFF17F063FF17F062FF15
:1035B0003B4B3C4A00933C495923206818F013FFC9
:1035C0003A492B463A4A206818F00DFF284600F089
:1035D000BFF83849206818F006FF00BEFDE73649FD
:1035E00000902379354A0968354800F0D1F805463E
:1035F000002847D0274C2849206818F0F4FE2749B6
:10360000206818F0F0FE17F034FF17F033FF244B5A
:10361000244A009324496223206818F0E4FE2349D9
:103620002B46234A206818F0DEFE284600F090F86A
:103630002049206818F0D7FE00BEFDE7B0F805303D
:10364000B7EE047A07EE903AF8EE677AB0F80730F2
:1036500067EE877A013307EE103AB8EEC77A67EE65
:10366000877AB1EE047A67EE877AFAFE677AFCEE23
:10367000E77A17EE903AB3F57A7F38BF4FF47A7352
:103680000D4A136005B030BDA0000602A00006017F
:10369000872D0020B40C00201C8A030850870308E3
:1036A00015910308A0900308618703083B8703086E
:1036B000388703086D87030898310020FD3401081E
:1036C000A00C00200B4B02461B7883B10A4B1B78E1
:1036D000834234BF00200120084B1B7833B1084BD4
:1036E0001B78134113F0010F08BF00207047012021
:1036F000F2E700BFCA330020C9330020882D002024
:10370000C8330020012208B5074B1A700022074B6E
:103710001A700422064B1A701F22064B1A7003F00F
:1037200005FE054B186008BDCA330020882D002017
:10373000C9330020C8330020B40C0020024B0349D9
:10374000186818F050BE00BFB40C00203591030873
:1037500070B50C4C0C490646206818F044FE03F086
:10376000E5FD0546206803F0B7FD3046FFF7E6FFAC
:10377000284603F0B1FD20680449BDE8704018F008
:1037800032BE00BFB40C0020379103083991030802
:103790002DE9F7430546914698460E469DF8287058
:1037A00049B1002838D017F06EFE012809D1012058
:1037B00003B0BDE8F0838FBB002814BF2120222076
:1037C000F6E700244FF47A7C40F2E73021464FF4CC
:1037D0007A72E6FB0C01002315F000FC124B014647
:1037E00000933A462B46114824F0D7FE0646B8B15E
:1037F000C5E90009C5F808802F7422F057FC23465C
:10380000024601213046009423F028FA012809D00D
:10381000284617F038FECAE72220C9E72120C7E76B
:103820001920C5E72046C3E777B402083C91030896
:1038300008B5034823F011FDBDE8084017F0BFBDEF
:103840007CA40308014823F008BD00BF7CA4030842
:1038500013B5082017F027FFFFF74AFE0123009356
:1038600090F83630124C022B20601FD1006802F015
:103870000BFC236820F07F4093F83530023B012B8E
:1038800094BF0323002340EA83700190684617F039
:1038900014FE0222074B6846CDE9002317F00DFE07
:1038A000082002B0BDE8104017F008BF0020E0E794
:1038B000B80C0020006A18100348044A0449121A80
:1038C000921017F045BE00BF802101088021010839
:1038D0002030002008B5154B83F30A8800F030F83B
:1038E000FFF7EAFF124B13498B4212D30020124B11
:1038F00012498B4218D3FEF7A5FC186850F82240F5
:10390000586840F82240013298688242F5D30C335F
:10391000EAE70022F8E71C6844F8220001325C68FC
:10392000A242F8D30833E4E70022F8E708000020B9
:103930008CEB030898EB030898EB030898EB03085B
:103940004FF48041124B134A70B59A60D3F8882027
:10395000114D42F47002C3F88820104A05F5005456
:1039600091664FF0FF3222660D4A62660222C3F86A
:10397000D020BFF34F8FBFF36F8F4FF4403600203E
:1039800003F09CFC0020E66003F052FC2E6170BD49
:1039900000ED00E00020010800800044009000508D
:1039A000F7FF3700014B1860704700BFA0310020BF
:1039B000054B1860054B1B6F03F00703032B01D168
:1039C00020F0A8BE704700BFA83100200080005042
:1039D0004FF000639B6A03F17842B2F5903F03D247
:1039E0001968064A914203D0002303708360704730
:1039F000012202709A689B694260F7E707B0CD5ECA
:103A00004FF000639B6A10B503F17842B2F5903F26
:103A100011D21968094A91420DD1094C227812F04D
:103A2000FD0F01D0002010BDDB6998470028FAD1B6
:103A300001232370F6E74FF48170F4E707B0CD5E01
:103A4000892D0020024B034A1A6018F07CBC00BF8D
:103A50000000002002020FF0BFF34F8F0549064B14
:103A6000CA6802F4E0621343CB60BFF34F8F00BF1C
:103A7000FDE700BF00ED00E00400FA0540B1054A93
:103A80001378012B04D803700133002013707047A2
:103A9000012070478A2D002030B5056887B0AB88BB
:103AA00004461848ADF80C3023F0D7FB0022012162
:103AB00003A800F0FDF80DF10B0103A817F036FE86
:103AC0009DF80B3083F001032B70AB79022B15D1DD
:103AD0004FF0FF330022CDE9043304A90A4B0094D0
:103AE00003A800F0E7F9049B009401330CBF042203
:103AF0000122054B05A903A800F05CF9002007B0DE
:103B000030BD00BF7CA40308EBB50208002307B555
:103B10002948019323F0A1FB4FF4407301220421B3
:103B20006846ADF8003000F0C3F80122234B0520B1
:103B3000C3F8442401A923F08BFB002839D1204B82
:103B4000D3F8F02042F00102C3F8F020D3F8FC20B3
:103B500042F08072C3F8FC201A4AA3F55D431A6054
:103B6000019B194A03F5D52303F2FC43B3FBF2F39F
:103B7000164A013B13610223C2F8F0304FF4807300
:103B8000C2F804334FF06043114AC3F8B02F114A12
:103B9000C3F8802ED3F8002E42F48072C3F8002EB2
:103BA000FF2283F82020D3F8002E22F48072C3F87D
:103BB000002E03B05DF804FB7CA4030800D0035082
:103BC00000ED00E0FF030040F8590D00000004E0A4
:103BD00055CEACC5090001004FF06043D3F8802EEC
:103BE00030B5D20715D501240B4D8440D5F8FC2003
:103BF00042F08072C5F8FC20D3F8002E2243C3F8AF
:103C0000002E53F82020002AF0D003F820100020C6
:103C100030BD1120FCE700BF00ED00E02DE9F041D0
:103C200004460C254FF00108124E0CB314F00100AD
:103C30000BD0002024F0010405FB00625768002F20
:103C4000F3D09168C0B2B847EFE722460130202890
:103C50004FEA520201D0D307F8D508FA00F20F2834
:103C600024EA0204E8D9103805FB0062B432E5E723
:103C7000BDE8F081BC0C002008B50C4823F0EDFA3B
:103C8000192003F0E3FA28B1192003F017FB1920DB
:103C900003F0CEFA1A2003F0D9FA28B11A2003F063
:103CA0000DFB1A2003F0C4FA002008BD7CA4030811
:103CB0002DE9F0410E469046054618B30F2923D84A
:103CC0000378E3B1012B03D0022B18D0032B1BD1B7
:103CD0003F236A78D340DB0716D50D4BD3F810434A
:103CE000A4B923F021F9074642462846314602F09E
:103CF000AFFB384623F013F92046BDE8F08140F2CF
:103D0000FF33E6E72224F7E72124F5E70224F3E76F
:103D100000C0035010B50446E8B10378C3B1012BCD
:103D200003D0022B14D0032B17D13F236278D3404A
:103D3000DB0712D523F0F8F80122637821789A4046
:103D400030235943064B5A5023F0E9F8002010BDA8
:103D500040F2FF33EAE72220F9E72120F7E700BF2E
:103D600040D0035010B50446E8B10378C3B1012B2D
:103D700003D0022B14D0032B17D13F236278D340FA
:103D8000DB0712D523F0D0F80122637821789A401E
:103D900030235943064B5A5023F0C1F8002010BD80
:103DA00040F2FF33EAE72220F9E72120F7E700BFDE
:103DB00040E003502DE9F0410D4616469846044672
:103DC000002851D000294FD002784AB1012A42D0B0
:103DD000022A05D0032A3ED0FF2A07D0212041E045
:103DE00040F2FF336278D340DA07F7D5022E01D9CB
:103DF000042EF3D123F098F823780746FF2B05D043
:103E000032462046296802F069FB28602B6801339E
:103E100009D12378FF2B06D1144B6078D3F82414F2
:103E200017F087FE286029684B1C17D00C23104A16
:103E300003FB0122069BC2F8048093602378FF2BCA
:103E400004D001230B4A8B40C2F82434384623F0B7
:103E500066F8002006E03F236278C4E7384623F086
:103E60005EF82D20BDE8F0812220FBE700C0035062
:103E7000BC0C002000D003500F2810B5044613D806
:103E800023F052F80123094AA340C2F82034C2F8B3
:103E900024340C22064B02FB04330024C3E9014402
:103EA00023F03DF8204610BD2120FCE700E0035040
:103EB000BC0C00202DE9F0410D4690461F460446FB
:103EC000002842D0002940D0017849B1012933D0DF
:103ED000022905D003292FD0FF2907D0212032E065
:103EE00040F2FF336278D340DA07F7D523F01CF8AD
:103EF00023780646FF2B05D042462046296802F06B
:103F000073FB28602A68531C19D00C23104903FB4B
:103F10000211069BC1F8B870C1F8BC302378FF2BA2
:103F200005D00123103293400A4AC2F824343046A7
:103F300022F0F5FF002006E03F236278D3E7304609
:103F400022F0EDFF2D20BDE8F0812220FBE700BF2D
:103F5000BC0C002000D0035008B502F05FFA054BFE
:103F600000F0553020F05020C3F82004BDE8084090
:103F7000FFF754BE00E0035008B502F04FFA054BBE
:103F800000F0AA3020F0A020C3F82004BDE80840CB
:103F9000FFF744BE00E0035013B504460A4823F07F
:103FA0005CF9A2780421B2FA82F2237852098DF8E2
:103FB000043063780DEB01008DF80530FFF778FED3
:103FC000002002B010BD00BF7CA403082DE9F04F13
:103FD0009A46564B85B01B7806460F461546DDF8C7
:103FE0003C909DF844B0DDF85080002B00F09780A5
:103FF000072A00F296800E9B002B00F09280B9F108
:10400000000F00F08E80129BB3F5006F00F38980E3
:10401000012803D1109B002B00F08380444B03EB5D
:1040200005131B7B002B7ED0424C102200216846DA
:104030001FF0A4FA04EB45141022A7BB3946204612
:104040001FF09CFA43F210036380BBF1000F03D111
:10405000E37843F00303E370364A0E9B02EB451C02
:10406000CCE90193129B6901581E9DF84C30C0F3B6
:104070000A0003F003039B0643EA001E53582E4830
:10408000012E00EA03004EEA0003CDF800A05350D1
:1040900017D0B8F1000F2ED19CF8023068F304134A
:1040A0008CF8023027E0002120461FF067FA4FF419
:1040B00044736380BBF1000FCED1E37843F030034B
:1040C000C9E713230CF1100ECCF80C309CE80F005C
:1040D0008EE80F006FF00301DCF81C20109B61F3E9
:1040E0009F02012FCCF81C20CCF8143003D1CCF85F
:1040F0001890CCF8043000270D4A290102EB051373
:1041000042F80180159A28465A60694622469F6007
:104110005E7302F0ABF8384605B0BDE8F08F074893
:10412000FAE70748F8E70748F6E700BF8B2D0020BD
:10413000240F0020240E00200F80FFF3028000F0E7
:10414000018000F0078000F038B5124B05461B785F
:10415000DBB1E0B122F0E8FE0F4A00231146147BE8
:1041600054B92B6001251A0101EB03131D738C5008
:1041700022F0D5FE204638BD0133082B02F1100293
:10418000EDD122F0CCFE0548F5E70548F3E70548F8
:10419000F1E700BF8B2D0020240F0020048000F0E9
:1041A000028000F0018000F038B522F0BDFE00234F
:1041B00005460B4A147B6CB90133082B02F110023F
:1041C000F8D101F0FFFF074B28461C7022F0A7FE34
:1041D000204603E0284622F0A2FE034838BD00BF77
:1041E000240F00208B2D0020058000F00D4B10B512
:1041F0001B78044693B1072812D822F095FE0A4B8B
:1042000003EB04131A7B2AB100241C7322F087FEEF
:10421000204610BD22F083FE0448FAE70448F8E780
:104220000448F6E78B2D0020240F0020068000F0C4
:10423000028000F0018000F0154B13B518680023D0
:1042400001908DF8043022F06FFE124B1C7824B1DF
:1042500022F065FE104802B010BD01221A7022F053
:104260005EFE0E4B01A81C731C7783F82C4083F86C
:104270003C4083F84C4083F85C4083F86C4083F802
:104280007C4008238DF8073001F0C0FF2046E2E7AC
:10429000989103088B2D0020038000F0240F00204C
:1042A000F8B50D4D2D7885B1072810DC0B4D0601B2
:1042B00005EB0014277B67B1AB510025069BA56079
:1042C000636001F0D3FF2846F8BD0548FCE70548C8
:1042D000FAE70548F8E700BF8B2D0020240F0020E7
:1042E000028000F0018000F0078000F00A4A08B563
:1042F00012785AB107280BD8084A02EB00131B7B2F
:1043000043B1002101F074FF002008BD0448FCE720
:104310000448FAE70448F8E78B2D0020240F00201A
:10432000028000F0018000F0078000F00A4A08B522
:1043300012785AB107280BD8084A02EB00131B7BEE
:1043400043B1012101F054FF002008BD0448FCE7FF
:104350000448FAE70448F8E78B2D0020240F0020DA
:10436000028000F0018000F0078000F0184B2DE97A
:10437000F0411F6D5B6D1F4000D5FEE70126002553
:10438000144CDFF85880374218D02368C8F85060C2
:10439000A3B1A168284601316268A1609847637B98
:1043A000012B0BD150B90C4B03EB45131A7B60F377
:1043B00041021A731A7F60F341021A770135082D02
:1043C0004FEA460604F11004DDD1BDE8F08100BFDC
:1043D00000000450240F0020240E00200020045070
:1043E00038B141B1013AB2F5006F044838BF00203E
:1043F0007047034870470148704700BF037000F0E2
:10440000027000F0104930B50A78104B2AB9C3E9A0
:104410000022C3E9022201220A700C4900220C4644
:1044200054F8045B854208D00132042AF8D10022F6
:1044300051F8044B1CB943F82200002030BD013272
:10444000042AF5D10248F9E78C2D0020A40F0020A2
:10445000027000F0002313B51D4A52F8044B94F883
:10446000211081420ED00133042BF6D102B010BDD1
:104470000028FBD19DF80730002BF7D0A068FFF78C
:1044800035FFF3E794F83530022BEFD1204617F0D3
:1044900049FA637E2076022BE8D194F8323003F09B
:1044A000FF02002BE2D1A0680DF107018DF8072073
:1044B00020F0F4F9237E1BB194F83330002BD7D0D1
:1044C0000023A06884F83330FFF730FFCEE700BF49
:1044D000A40F002010B50446FFF7AEFE002104F142
:1044E0000800FFF731FE014608B1044810BD04F191
:1044F0000C00FFF729FE0028F8D0F6E70E7000F058
:1045000010B590F83630044663B9042203685A6146
:104510009A699207FCD523790C4AB9335B011021C3
:10452000995010BD022BFCD10068836CDB074CBF97
:104530000521062117F090FA237941F294425B019C
:1045400003F1A04303F57033E9E700BF00C0035057
:104550002DE9F04104461746FFF742FF884606461C
:10456000E8B9152002F080FE0546E26A93889BB206
:1045700013B194F83230ABB194F83630BBB923683C
:104580009D6915F0020527D0012384F83430474493
:10459000B845206844D183699B06FCD545B33046B5
:1045A000BDE8F081002DE1D0FFF7E0FEDDE7022B52
:1045B00012D123689D6C15F002050DD0012384F8FB
:1045C000343047444745206831D142F22002836CA1
:1045D00032EA0303FBD1E1E72046FFF791FF012315
:1045E00094F8365084F83430002DD0D0022D1CD0F1
:1045F00094F8363003B3022BD1D12068816C11F0CE
:10460000010118BF092117F027FA42F29442102144
:1046100023795B0103F1A04303F570339950BEE7A2
:1046200018F8011B17F071FAB2E70025C9E718F86E
:10463000011B17F033FAC5E710212379044A03F26E
:1046400039135B01D150082223685A61A7E700BFE4
:1046500000C0035010B5044680B190F832302BB939
:1046600017F060F910B9A068FFF740FE002094F839
:1046700032300133DBB284F8323010BD0048FCE741
:10468000027000F010B50446A0B190F832309BB132
:1046900090F83230012B05D117F044F910B9A06819
:1046A000FFF744FE002094F83230013BDBB284F87F
:1046B000323010BD0148FCE70148FAE7027000F013
:1046C000057000F030B50025437F85B08DF80830C7
:1046D00090F82130044604228DF80930039303A991
:1046E000064B009502A8FFF765FB4FF400732046C8
:1046F0002383A57617F02FF905B030BD5544010886
:104700002DE9F04104468EB06B4F06AE0D460FCF3B
:104710000FC697E80F0086E80F00182200216846B0
:104720001EF02CFF002C00F0C58025B9634E3046EA
:104730000EB0BDE8F0816422002120461EF01EFF6D
:1047400002232F6884F8363027602B7C20462371A3
:10475000FFF758FE06460028E9D12B7F84F8353054
:10476000AB682366564B9F4200F09680554B9F42A4
:10477000DCD14FF480135449544AC4E90423002384
:10478000616284F83130D5E9091284F83030A162D1
:104790004F480B804B808B8084F83030E26213806E
:1047A0005380938084F8313084F8333022F055FD03
:1047B000636ADFF82C81986822F04FFD10212B7C72
:1047C00008EB4312C2F894142E7BA87B253346EAEB
:1047D0000041C2F8AC14697BEA7B08EB431341EA61
:1047E00002475F60E676E077217784F820206B7FD0
:1047F00001216377AB7F204684F82130EB7FA377DC
:1048000095F8203084F8223017F025F80646002865
:104810008DD1AB68022608936B8A8DF82560ADF8C0
:104820002830AB8ACDF834D0ADF82630AB7D8DF88A
:104830002430AB690B930123ADF8063022F074FBF2
:104840002A7F0746032A2CD141F294412B7C08EBA6
:1048500043135E5095F82000E97F41EA004103F5DB
:10486000A5500160A87F697F41EA004141F29C4068
:1048700019508DF8002006238DF818302B79286800
:1048800006A9A3B117F013F92046FFF723FE064649
:10489000384622F044FB4AE74FF470230D490E4A94
:1048A0006BE7022AE7D12046FFF70CFFE3E717F09A
:1048B000FAF8E9E7094E3AE7B8910308037000F007
:1048C0000000015B00000A5094A4030801001000DE
:1048D0007CA40308A0A4030801000F00027000F0EC
:1048E00000C00350044BD3F88420D206FBD4D3F885
:1048F0008400C0F3811070470040005038B5174B5A
:104900000546D3F828310C4603F00703013B052B7D
:1049100020D8DFE803F003131B0F0B171FF0D4FEA2
:10492000052305B1286004B1236038BD1FF0CCFE1B
:104930000623F6E71FF012FF0723F2E71FF004FF3C
:104940000323EEE71FF000FF0423EAE71FF0F8FE61
:104950000223E6E700231846E3E700BF008000508B
:10496000002337B50193164B0546D3F820320C4689
:1049700003F00703042B21D8DFE803F0030B111623
:104980001B0001230DB1019A2A6004B1236003B01A
:1049900030BD002101A8FFF7B1FF1223F2E71FF09D
:1049A000DDFE07230190EDE722F0AAFA0A23019029
:1049B000E8E71FF01BFF09230190E3E70023E1E78D
:1049C0000080005038B5104B0546D3F880300C46B7
:1049D00003F00303022B0BD0032B0DD0012B0FD1BF
:1049E0001FF078FE0E2305B1286004B1236038BDA6
:1049F0001FF0B4FE0723F6E71FF066FE0623F2E77A
:104A000000231846EFE700BF0080005038B5104B78
:104A10000546D3F800310C4603F00303022B0BD0FC
:104A2000032B0DD0012B0FD11FF08EFE032305B1F8
:104A3000286004B1236038BD1FF0D8FE0923F6E7D3
:104A40001FF088FE0823F2E701230020EFE700BFF4
:104A50000080005038B5184B0546D3F820010C46AD
:104A600000F00700062823D8DFE800F0040A0E163D
:104A7000121A1E00012305B1286004B1236038BD5D
:104A80001FF022FE0523F6E71FF05EFE0323F2E788
:104A90001FF064FE0723EEE71FF052FE0223EAE751
:104AA0001FF012FE0623E6E71FF04EFE0423E2E7A6
:104AB00000231846DFE700BF0080005038B5104BD8
:104AC0000546D3F840310C4603F00303022B0BD00C
:104AD000032B0DD0012B0FD122F012FA0A2305B1BE
:104AE000286004B1236038BD1FF080FE0923F6E77B
:104AF00022F009FA0C23F2E701230020EFE700BFC0
:104B000000800050002337B50193164B0546D3F8BB
:104B100060320C4603F00703013B032B1FD8DFE88C
:104B200003F0020E1914002101A8FFF793FF1023D0
:104B30000DB1019A2A6004B1236003B030BD002199
:104B400001A8FFF7BBFF1123F2E71FF007FE0723C1
:104B50000190EDE71FF0F4FD02230190E8E7002348
:104B6000E6E700BF00800050002337B50193164BE5
:104B70000546D3F894320C4603F00703013B032BA0
:104B80001FD8DFE803F0020E1914002101A8FFF777
:104B900061FF10230DB1019A2A6004B1236003B0B4
:104BA00030BD002101A8FFF789FF1123F2E71FF0B4
:104BB000D5FD07230190EDE71FF0C2FD0223019010
:104BC000E8E70023E6E700BF0080005038B5104B4F
:104BD0000546D3F860310C4603F00303022B0BD0DB
:104BE000032B0DD0012B0FD122F08AF90A2305B136
:104BF000286004B1236038BD1FF0F8FD0923F6E7F3
:104C000022F081F90C23F2E701230020EFE700BF37
:104C1000008000502E4B98424AD022D82D4B98420B
:104C200040D014D82C4B984239D00AD82B4B9842FC
:104C300032D02B4B98422FD02A4B98422CD00020B8
:104C40007047294B9842FAD1284B186F7047284B70
:104C500098422AD0274B9842F1D1244BD3F88000B8
:104C60007047254B98422BD009D8244B984223D02B
:104C7000234B9842E3D11D4BD3F88C007047214B56
:104C8000984221D003F5740303F510539842D6D10E
:104C9000164BD3F898007047144B986D7047134B20
:104CA000586E7047114B586F7047104B986F704794
:104CB0000E4BD3F8840070470C4BD3F88800704734
:104CC0000A4BD3F890007047084BD3F89400704714
:104CD0000048E8010024F400C0CF6A0080841E0070
:104CE00000093D0040420F00405DC6000080E00F1B
:104CF000C0EA210180BA8C01007E560380D54302B0
:104D0000006CDC020090D00373B50D460021114BFE
:104D10000191D3F88041064604F00304022C13D01D
:104D2000032C0CD0012C13D101A8FFF793FE102403
:104D30000EB1019B336005B12C6002B070BD1FF055
:104D40000DFD07240190F3E71FF0FAFC0190EFE757
:104D50000C46EDE70080005038B5104B0546D3F8FF
:104D600040320C4603F00303022B0BD0032B0DD073
:104D7000012B0FD122F0C4F80A2305B1286004B139
:104D8000236038BD1FF032FD0923F6E722F0BBF89F
:104D90000C23F2E701230020EFE700BF0080005062
:104DA00038B5144B0546D3F800020C4600F0070056
:104DB00004281BD8DFE800F003090D1115000123BA
:104DC00005B1286004B1236038BD22F099F80A23A8
:104DD000F6E71FF00BFD0923F2E722F094F80C230D
:104DE000EEE71FF097FC0F23800AE9E7002318463F
:104DF000E6E700BF0080005038B5144B0546D3F8F5
:104E000008020C4600F0070004281BD8DFE800F079
:104E100003090D111500012305B1286004B12360B9
:104E200038BD22F06DF80A23F6E71FF0DFFC0923F6
:104E3000F2E722F068F80C23EEE71FF06BFC0F237B
:104E4000800AE9E700231846E6E700BF008000502B
:104E5000B0F5207F1FD009D8B0F5007F15D003D85A
:104E600068B1B0F5C07F0AD000200CE0B0F5607FDB
:104E7000FAD10B4BD3F88000C0F3011003E0084BCC
:104E8000186FC0F3033001307047054BD3F8900022
:104E9000C0F30460F7E7024B186FC0F38020F2E71D
:104EA0000080005002464FF48030104B10B59866D9
:104EB0000020FFF7CDFF504341F671320C4BDC6907
:104EC000DA635A6804F4803422F4401259B909496B
:104ED000884294BF00200120000502435A600CB1B3
:104EE0000022DA6310BD0449F2E700BF00900050D1
:104EF00000000350005A6202002D3101430905D021
:104F0000012B0CD0022B084B18BF002300F01F0010
:104F100039B103F58053012282401A607047034B78
:104F2000F4E703F50053F6E7688000506480005012
:104F30001FB50021B0F5807F0446CDE9001100F0D7
:104F4000D2803AD85E2833D85E2833D8DFE800F024
:104F5000453232323232323232323232323232321E
:104F60003232323232323232323232323232323221
:104F700045AC45ACBCBCBCBCBCACC64E6BDC4EACA2
:104F8000ACAC3232323232323232ACACAC7EE6AC25
:104F900032323232323232323232323232BC454541
:104FA00045E14E4EEB8D63C132323232329E4500C6
:104FB000802870D0009804B010BDB0F5D06F00F01C
:104FC000A38035D8B0F5607F79D01AD8B0F5007FCE
:104FD00065D005D8B0F5C07FECD11FF09BFB5CE03D
:104FE000B0F5207F60D0B0F5407FE3D11FF092FB99
:104FF00002464FF42070FFF72BFFB2FBF0F252088D
:105000005BE0B0F5B06F69D00AD8B0F5806F5BD0C7
:10501000B0F5A06FCED100216846FFF7A1FCC9E72B
:10502000B0F5C06FC6D100216846FFF747FDC1E764
:10503000B0F5106F6DD00ED8B0F5086F78D0B9D834
:10504000B0F5E06F6AD0B0F5F06FB3D100216846DB
:10505000FFF7BCFDAEE7B0F5406F3AD013D8B0F51E
:10506000206F60D0B0F5286FA4D10021324B03919E
:10507000D3F8703203F00303012B02D103A8FFF72A
:105080001DFD039B39E0B0F5486F93D100216846C0
:10509000FFF76AFD8EE71FF01DFB00908AE71FF007
:1050A00019FB0246204604E01FF034FB02464FF491
:1050B0002070FFF7CDFEB2FBF0F200927AE701A874
:1050C000FFF780FC019AEDE700216846FFF7C2FC7C
:1050D00070E700216846FFF711FC6BE70021684686
:1050E000FFF712FE66E74FF0E02302911B695B07B2
:1050F00005D51FF00FFB0290029B00935AE703A90E
:1051000002A8FFF7DBFCF7E700216846FFF748FE3F
:1051100050E700216846FFF76FFE4BE70021684625
:10512000FFF71AFE46E700216846FFF7EBFC41E770
:105130006846FFF76BFC3DE70080005008B5802013
:10514000FFF7F6FE034B98429EBF4FF48032024BAE
:105150001A6708BD005A620200A000501FB503463E
:105160000020B3F5807F019000F0C58065D85D2BED
:1051700056D84C2B07D82D2B48D8232B2CD8019848
:1051800005B05DF804FB4D3B102BF8D801A252F896
:1051900023F000BFED5201087F5101087F51010843
:1051A0007F5101089B5201087F5101087F5101087E
:1051B00047530108B95201085F5201083D530108E5
:1051C0007F5101087F5101087F5101087F5101087B
:1051D0007F51010851530108243B092BCFD801A26C
:1051E00052F823F0ED520108ED520108ED5201088A
:1051F000ED520108ED5201087F510108E352010808
:105200007F5101087B520108235301083D2B00F018
:1052100083803E2BB3D1002001A9FFF79DFDAEE7AF
:10522000802BACD1504B1B6F03F00703013B032BCA
:10523000A5D8DFE803F0544D5052B3F5F06F6BD0B2
:1052400020D8B3F5B06F4CD00ED8B3F5607F71D0D5
:1052500095D3B3F5806F49D0B3F5A06F8FD10020FF
:1052600001A9FFF77DFB8AE7B3F5D06F59D0B3F5FD
:10527000E06FD0D0B3F5C06F81D1002001A9FFF756
:105280001DFC7CE7B3F5206F5DD00BD8B3F5086F3C
:105290004CD0B3F5106F7FF472AF002001A9FFF777
:1052A000ABFD6CE7B3F5406F48D0B3F5486F4FD016
:1052B000B3F5286F7FF463AF2B4BD3F8703203F054
:1052C0000303012B49D0022B0CBF1523002300E060
:1052D0000523019353E70323FBE70823F9E70223A0
:1052E000F7E7002001A9FFF70FFD48E7002001A91B
:1052F000FFF7B0FB43E74FF0E02302901B695B0729
:1053000005D51FF007FA0D230393039BE1E703A9DB
:1053100002A8FFF7D3FBF8E7002001A9FFF756FC2E
:105320002DE7002001A9FFF73BFD28E701A9FFF7C2
:105330006DFB24E701A9FFF745FB20E7002001A949
:10534000FFF7DCFA1BE7002001A9FFF7DBFB16E7FC
:10535000002001A9FFF708FC11E7002103A8FFF7CF
:10536000ADFB1123B5E700BF008000504FF4803241
:10537000074B0849586E03F580535A664B6A23F071
:1053800001034B62C3035CBF034B5A66704700BF07
:105390000080005000C0075000A0005008B5FFF783
:1053A000DDFE092811D00A38012802D94FF6FF7016
:1053B00008BD4FF48002064B5A6603F5D8335B6A8A
:1053C000DB07F3D54FF4FA70F2E7024B1888EFE7EA
:1053D00000900050B233002008B5FFF7BFFE03284D
:1053E0000ABF024B4FF6FF70188808BDB03300208B
:1053F00038B504468020FFF7B1FE032800F0838013
:105400004FF48012524B4FF0A0615A6645F60E02DF
:10541000504BC3F88020504A91624FF4803102F51E
:10542000805291629A6DD203FCD4996D11F0804143
:10543000FBD1D4E90002120542EA0062E07B02439C
:10544000207B42EA0042607B42EA0032A07B42EAD3
:1054500080121A619869D4E90452120642EA856200
:1054600000F000400243A07EE57E0243207E42EA37
:105470000042607E42EA00229A611A6AE06922F0E4
:105480000F0242EA8502354D00283DD11A6294F898
:105490002420996A94F82000D200294042EA401260
:1054A0000A4394F8211042EA011242F480329A62CF
:1054B0002B49284A936D31EA0303FBD14FF08071E9
:1054C000254881621369A56823F4700343EA0553F4
:1054D00013614FF00043836194F822300BB9214BE4
:1054E000996294F823303BB94FF480321D4B9A6295
:1054F000184A936D5B00FCD494F825301BB1154B12
:10550000194AC3F8802038BD024342F0080202283D
:105510001A6208D119614FF40852996113484FF487
:105520007F4116F054FA0B4994F822308A6A94F8B5
:1055300020001B062A4043EA4013134394F824201A
:1055400043EAC20394F8232043EA02438B62D3E781
:10555000009000500040005A0050005AC7FFFEFE65
:10556000030001000060005AF1A7FFFF3440005A19
:10557000014B93F900007047CB330020F0B5D0E920
:1055800001434FF400061A4A4178057856664FF4F5
:10559000D156022702F5B8325662164E4F2977606F
:1055A0004FF0010728BF4F2106F580567760166936
:1055B000F603FCD441EA052151611B01417B43EA1A
:1055C00004230B43017B43EA41039360C37B817B4C
:1055D0001B0143EA4113417C0B43017C43EA410335
:1055E0005360837C13B16FF4D1535362F0BD00BF9D
:1055F0000090005000100250014B1880704700BF0F
:10560000B2330020014B1880704700BFB033002038
:105610004FF4800208B5184B5A660223174A5360AC
:10562000936813F48033FBD1012822D11FF08CF84A
:10563000134B984215D003F5122303F5F8639842F3
:1056400013D0104B00EB8002400AB3FBF0F3520A78
:105650000A49CA620B6301234B620022074B5A605E
:1056600008BD45F67A13084AF2E745F61A03074AD9
:10567000EEE75362F1E700BF009000500040025097
:1056800000F0490264666666D8B80500BBCF050025
:10569000B0F5207F10B50C465DD008D8B0F5007F7E
:1056A0004ED003D8C0B1B0F5C07F15D010BDB0F555
:1056B000607FFBD12C4B4C1ED3F8FC202B4912F001
:1056C000807F4FEA041427D1D1F8803023F03003D3
:1056D0002343C1F88030E9E716F088F916F094F911
:1056E0004FF48031224B214A1967136F013C23F498
:1056F000704343EA043313671FF00CF80446FFF7C6
:10570000F1F8C0F10201204616F078F900F04AF8ED
:10571000BDE81040FFF712BDD3F8FC2022F08072E4
:10572000C3F8FC20D1F8802022F030022243C1F8D7
:105730008020D3F8FC2042F08072C3F8FC20B5E74B
:105740000A4A4C1ED2F8903023F0F85343EA04631F
:10575000C2F89030AAE7054A4C1E136F23F4806309
:1057600043EA84231367A1E700ED00E000800050C6
:105770000090005008B50121022000F073F94FF4A9
:105780002070FFF765FB054B187016F02FF916F027
:105790003BF94FF48032024B1A6708BD8D2D002073
:1057A0000090005008B54FF4C070FFF7C1FBBDE892
:1057B00008400449884294BF012102214FF420701F
:1057C000FFF766BF80F0FA0238B504461EF0A2FF6C
:1057D0000546FFF787F8C0F10201284616F00EF9DA
:1057E0000121002000F07EF92CB1FFF7DBFFBDE8BE
:1057F0003840FFF7A3BC034B4FF420701978FFF734
:1058000047FFF4E78D2D00204FF4C02270B5054608
:10581000FFF700FA314B04465A6603F598335A688D
:10582000012A04D12E494A605A689207FCD480208C
:10583000FFF794FC052807D116F0D8F816F0E4F825
:105840004FF48032254B1A67264B24F040749D425A
:1058500030D0254B9D4230D01EF036FF85420646A3
:1058600003D90121284600F03DF9204BDA6812F0F7
:10587000060FFBD199689C609A68624012F4F81F89
:105880001ED12846FEF78EF88020FFF767FC05281A
:105890000DD11EF03FFF0446FFF724F8C0F10201CE
:1058A000204616F0ABF8FFF77DFFFFF747FCAE424E
:1058B0000CD270BD44F00074CEE744F08074CBE7A6
:1058C00080209960FFF74AFC052805D0BDE87040AC
:1058D0000121002000F006B93546DAE700900050BB
:1058E00000E0015040420F0080841E000000015083
:1058F000304B314A984251D020D8A3F5B703A3F5D5
:105900005863984246D00DD82C4B984231D02C4B3E
:10591000984239D02B4B4FF4002198421DD00023E0
:10592000516622E0284B4FF400219842F7D1274BD3
:10593000D3F8BC30516623F0407316E0244B9842F4
:1059400030D0244B984231D0234B4FF40021984261
:10595000E5D11E4BD3F8C830ECE71C4BD3F8A03090
:10596000516623F0407343F000734FF0B4429360EC
:1059700070474FF40021154BD3F8A030516623F047
:10598000407343F08073F0E7104BD3F8A0304FF42E
:105990000021CFE70D4BD3F8B830F8E70B4BD3F825
:1059A000C030F4E7094BD3F8CC30F0E7074BD3F81D
:1059B000D030ECE7C0EA21010090005080841E0046
:1059C00000093D0040420F000024F4000080E00F79
:1059D0000048E801005A620280BA8C01024A536B07
:1059E0000342FCD1704700BF00400950044A41788F
:1059F000536F23F4407343EA01235367704700BF9A
:105A0000004000500E4A10B51369044643F00403E9
:105A100013611FF065FD15F0FCFF0A4B5B6E5B0127
:105A200042BF094B094AC3F8202430BF15F0F2FFEA
:105A300002F006FC1CB9BDE810401EF06BBE10BDA4
:105A400000ED00E00080005000E003500000FF0F78
:105A5000034A0179D36E23F030030B43D3667047BA
:105A600000400050F8B504461C4BD3F88420D10602
:105A7000FBD4D3F88430C3F381139C422CD01EF0A6
:105A800029FE012C064602D1214615F0B7FF21F070
:105A900042FA4FF00072124B07465A66204615F044
:105AA000BCFF4FF480630D4D621E93402B676B6EFD
:105AB0009A0103D4D5F884309B060AD5384621F0E4
:105AC00025FA022C08D13046BDE8F840002115F037
:105AD00095BFD5F88430EAE7F8BD00BF004000501C
:105AE0000060005010B50C4608B91EF0F3FD074BDE
:105AF00021461B783BB1064B984204D80120BDE8F3
:105B00001040FFF7AFBF0220F9E700BF8E2D002045
:105B1000005A62020278034B012100201A70FFF73D
:105B2000E1BF00BF8E2D00204FF0004238B5244B5E
:105B3000244C5A664AF6CD33656C014605F00105E2
:105B4000236428BB0120FFF749FF6368DB0715D5F5
:105B50001D4B586008461D4B226BD2070CD498424F
:105B600008D1072415B1174B194A1A641CF031FFEC
:105B7000204638BD0130EFE79842F2D00024F1E72B
:105B80000132236B13F0080305D08A42F8D1E8E70D
:105B900000220E49F5E78A42E3D020210A4A9162A9
:105BA0000121A2F5805251600649084A886A8006A0
:105BB00003D49342D5D00133F8E79342DDE700BF29
:105BC00000900050004009500060095040420F0012
:105BD0003254FFFF4FF0004238B5164B01465A666B
:105BE0004AF6CD33144C154A656C236443780B2078
:105BF0005B0043F00103D363FFF7F0FE63688A782C
:105C000023F4F87343EA02136360CA784B7943EADA
:105C10000223A3600A798B7943EA0223236108787F
:105C2000FFF782FFEB0744BF054B23641CF0D1FE56
:105C3000012038BD00900050004009500040005045
:105C40003254FFFF4FF00042124B70B55D6E03F50A
:105C500080535A664AF6CD3304460F4980204E6C75
:105C60000B64FFF7BBFE0B6A23F00F030F2C94BFEE
:105C7000234343F00F030B62F30744BF074B0B644E
:105C8000002DA2BF4FF00042054B5A661CF0A1FE4A
:105C900070BD00BF00800050004009503254FFFF2B
:105CA00000A000504FF00042104B70B55D6E03F540
:105CB00080535A664AF6CD3304460D4980204E6C17
:105CC0000B64FFF78BFE0B6A23F4F85343EA0423BB
:105CD0000B62F30744BF074B0B64002DA2BF4FF0CC
:105CE0000042054B5A661CF074FE70BD00800050E7
:105CF000004009503254FFFF00A0005010B515F0CD
:105D000091FE042300F5805100F500520B611361F0
:105D10000B6113610B6113610B611361202341F26D
:105D2000020103610023C360836041614FF4A0213D
:105D30008361836541620549C36103628362C36213
:105D400043630365D164036310BD00BFFF3F0D03D0
:105D500070B505461446084641B9354B9D4218D0EA
:105D6000344B9D4208BF5720FFF7E2F8AB6813F0B1
:105D7000010F6B6830D0B0FBF4F4D80704F1FF34A6
:105D80004FEA046407D42B6923F07F4323432B613C
:105D900070BD5620E8E72821284615F03FFEAB6C81
:105DA000990715D1AB6CDA0714D4AB6C13F0020F62
:105DB00014BF06260026284615F034FE2B6931460E
:105DC00023F07F4323432B61BDE8704015F044BEB0
:105DD0000526F0E70926EEE7AB6DDB07AB6848BFA9
:105DE000640003F0E003402B1BD004D8DBB1202B70
:105DF000CED1082304E0602B17D0802BC8D101231B
:105E000063434101B1FBF3F20B4B203A284603EA0E
:105E1000C202012115F002FE2A63BDE8704015F0B0
:105E2000FDBD0623ECE71023EAE70423E8E700BF03
:105E30000000015B00000A50F8FF7F002DE9F041EF
:105E40009846436804460E4617461BB140F6FF715C
:105E500015F0E4FD2046FFF751FFF189737B62697D
:105E60000B43318A22F44C5222F00F020B431343AE
:105E70006361A26896F818C0337B22F0804222F05A
:105E8000E2024CEA0303134372691343B268A3604E
:105E90001AB9A36843F00043A360F06904F5805386
:105EA000002878D0857A017A6D04D4F808E045EAB4
:105EB00081556E490EEA01010D43818801F4C0410C
:105EC0000D43417845EA8105417B45EAC105817B67
:105ED00045EA0115817845EA8125A560D4F80CE0F2
:105EE000D0E904152943624D0EEA05052943857959
:105EF00041EA8521C57941EA4521E16001785D4D9E
:105F0000012914D1E16841F00401E160AC4200F0E4
:105F1000928059498C420CBF01214FF0FF31490159
:105F200001F1A04142F2944501F5703114E00329DA
:105F30007BD1E16841F00401E160AC4279D04E4987
:105F40008C420CBF01214FF0FF3141F294454901D1
:105F500001F1A04101F570314FF0020E41F805E06A
:105F6000417A996219B1E16841F40061E160C17A56
:105F700059B1E16841F40041E1603E498C425CD195
:105F8000017B3E4D01F00F016967616AC07B21F022
:105F90000301014361622FB197F82010002956D008
:105FA00001211962B8F1000F2DD0BCF1000F02D011
:105FB0004FF4004199652F49B8F822508C4298F867
:105FC000211051D02C48844213D10120112934BF13
:105FD0004FF0010C4FF0020C294FB5F5006F07F898
:105FE00000C094BF4FF0010C4FF0020C254F07F892
:105FF00000C0A06D294320F4F95020F01E00014399
:10600000A16501219965012159601AB12046716885
:10601000FFF79EFE2046317815F01EFDA36CDB4392
:1060200013F4405FFAD1BDE8F0810239012984D927
:106030006CE7002189E7002171E70F498C4201BF1D
:10604000017B0E4D01F00F01C5F880109DE7E0695E
:1060500097F8221097F8215020F0090029430143B6
:1060600041F00101D9619DE70020AFE7E39BBDFF4F
:10607000FFF9F0870000015B00000A500090035018
:10608000912D00208F2D00202B4B2DE9F0419842BF
:10609000064612D0294886420CBF57200020FEF742
:1060A00047FFB16811F0010109D03169090E0131D2
:1060B000B0FBF1F10846BDE8F0815620EFE7346B04
:1060C000B3681F4A03F0E003402B02EA040210D039
:1060D00007D84BB3202B2BD0B36DDB0748BF490843
:1060E000E8E7602B26D0802BF6D14FF480750C4664
:1060F0001CE080250C46032302F5807803FB08F89A
:1061000000234246194612F069FF02FB04F100FB2E
:1061100005F705FB0311A2FB0505002342462944B0
:1061200012F05CFF3918D7E710251C460123E3E77E
:106130001D46DCE74025DAE70000015B00000A505D
:10614000F8FF7F002DE9F04105460F461E469046B8
:106150004AB101233022194C8B4002FB004436B374
:1061600004F5825423600F21072F05EB450388BFF8
:10617000A7F108044FEA0313114895BFBC00A4001F
:1061800004330C3308FA04F2A140184415F091FCD2
:10619000B8F1000F09D101233021084ABB4001FBAF
:1061A00005223EB102F582521360BDE8F08104F58C
:1061B0000154D7E702F50152F6E700BF00C00350D3
:1061C00030C0035010B5152001F020F80024FF2244
:1061D000064B21465C6520209A625C60FEF78EFECD
:1061E0002146BDE810402120FEF788BE0000045083
:1061F000044A054B002908BF1346012282401A6059
:10620000704700BF401004504020045010B50121D9
:1062100004462020FEF772FE01212120FEF76EFECB
:106220000122114B15205A60227812069A6061787B
:10623000A27842EA01429A61FF229A6200229A639E
:106240001A644FF000425A654FF0FF3203F50053D5
:106250001A6501F033F81520E17816F076F8BDE8FC
:106260001040152000F0E4BF00000450F8B50125EF
:10627000C3B2D1F800C08F7A0E7B0C469D40CB7A1A
:106280001C491B050D65810001F1A04101F5882124
:10629000C1F804C04FF0300C0CFB00F0617B00F142
:1062A000A04043EA074300F5802043EA465322F02A
:1062B00003020166C365026720F036FE0E4B227AA8
:1062C0005D6502B11D64627A02B19D632279A37992
:1062D00043EA0243074A93616179E37943EA014360
:1062E00005498B61054B55639D64BDE8F84020F07E
:1062F00016BE00BF002004500010045000000450DF
:1063000010B50124C0B2844020F00EFE044B5A6D3B
:1063100022EA04025A659C62BDE8104020F0FFBDED
:106320000000045010B50124C0B2844020F0FCFDF0
:10633000074BDA6A224208D15B6B9C430CBF0124F5
:10634000002420F0ECFD204610BD0024F9E700BF3A
:106350000000045070B5054620F0E6FD3022084BE1
:106360005E6B02FB05335C6E20F0D9FD0123EDB2BC
:10637000AB4033420ABFC4F30A100020013070BDA5
:1063800000000450013831289ABF024B185C0020ED
:10639000704700BFD891030838B5C2F306250446FC
:1063A00002F0070241B942EA052242F440220634D3
:1063B000074B43F8242038BD1146284615F088FBCA
:1063C00002462846FFF7DEFF163442EA0022EFE7D6
:1063D000008003504FF48032064B5A6603F5E623E3
:1063E0009B69C3F38512827003F03F021B0B42705E
:1063F0000370704700900050014B986CD96C704747
:106400000080E00F0122437801789A4030235943FD
:10641000014B5A50704700BF40E00350034BD3F884
:106420002424D3F820041040704700BF00C003505C
:10643000064BDA6E02F03002202A06D0DA6E22F025
:10644000300208B142F01002DA6670470040005096
:106450002DE9F8431F4B0546D3F810334B1E0E2B86
:106460000E461746047890F8018026D951B34FF0B4
:10647000000928461FB31EF07BFA0F21B8F1070F61
:1064800004EB440488BFA8F108084FEA041412483A
:1064900095BF4FEA88084FEA880804340C3409FA9B
:1064A00008F201FA08F1204415F034FB86B92846B9
:1064B00057B1BDE8F8431EF05BBA8946D9E7FFF74C
:1064C000A1FFDAE78946D8E7BDE8F843FFF79ABFAE
:1064D000BDE8F88300C0035030C003502DE9F041FF
:1064E0002B4B1746D3F810234A1C06460C4640781F
:1064F00004D1D3F8241415F01CFB0446002C2FDB28
:10650000072C4FF0030532782DDC4FEA840805FA9A
:1065100008F529461F4802FA08F215F0FBFA294649
:1065200072781D4802F0030202FA08F215F0F2FA3E
:10653000012317F0050F194A18BF194903FA04F38C
:106540000CBFC2F81034C1F8103417F0060F18BF92
:10655000134AC2F814340123104AA340C2F820346D
:106560002046BDE8F081A4F108084FEA880805FA42
:1065700008F529460B4802FA08F215F0CBFA7278B2
:10658000294602F00302084802FA08F2CEE700BFEB
:1065900000C0035000C4035008C4035000E003507F
:1065A00000D0035004C403500CC4035038B5054652
:1065B0000C4C0140D4F8303423EA0003C4F83034E2
:1065C000D4F830341943C4F83014D4F82C340343CD
:1065D000C4F82C34012004F50054FFF729FFC4F857
:1065E000205438BD00C00350124B70B5D3F810339F
:1065F000064615F0B8FA0446481C154603D1621C3D
:1066000005D1204670BD631CFBD08C420ED13046B4
:10661000032185F00102FFF71BFF012004F11003A5
:1066200005FA03F19840FFF7C1FFEAE74FF0FF34A6
:10663000E7E700BF00C00350054B9A689107FCD400
:106640005A689207F9D4DA69002AF6D1704700BF78
:1066500000800A50034908B54B681EF095F90223E3
:106660000B6108BD00800A5008B5FFF7E5FF012265
:10667000024B03F580514A601A6108BD00800A5040
:1066800008B5044B5868012803D1FFF7E3FF024B1C
:10669000586008BD00800A5000A00A5038B5074D68
:1066A000FFF7CAFF6B680446012B03D1FFF7E8FF31
:1066B000FFF7C2FF2378EB6038BD00BF00800A50AF
:1066C00010B51EF06BF9B8B94A680B7812B11278A0
:1066D00043EAC2034A7843EA42038A6812B1127855
:1066E00043EA8213CA7843EA82030A6912B1127834
:1066F00043EA4223014A936410BD00BF00800A5060
:106700004FF48032084B5A6603F5E6239B691A0B57
:10671000027003F03F0242704FF6FF72C3F385131D
:1067200042808380704700BF00900050014B986CFE
:10673000D96C70470080E00F70B504461CF013FA66
:10674000064630B90FCC044D0FC594E8030085E828
:106750000300304670BD00BFB40F002047F6FF7342
:106760009A42F0B56FD002296FD8394B5B5C012B90
:106770006BD8384DDF0005EBC30415F83330A17832
:10678000012B13D10025E078401AA84202D8084412
:10679000C0B2F0BD431B6668A0EB530336F913602B
:1067A0009642D4BF1D4603F1FF30EEE76068002833
:1067B000EFD0B0F90040944204DBB0F902409442BB
:1067C000B8BF144683883D44FF2B19BFC8224FF041
:1067D000280CB0F90620B0F908C0A2EB04030CBFE6
:1067E0000126002693FBFCF333446E781BB29E42D5
:1067F00001DD002B01DA731E1BB24FF47A7C0133EA
:106800009BB2071D5D1E2DB24FEAC50E00EBC505FC
:10681000EA88AD689E4214FB025222EAE27202F15B
:106820005C02B2FBFCF204DD37F8335001339542D1
:10683000E8D200EB0E039888904228BF10468842A9
:1068400038BF0846A4E7FF20A3E70020A1E700BF68
:106850000A920308B40F00200229F0B555D82C4B3A
:10686000585C012851D82B4C04EBC00114F83000BF
:106870004B6801280FD1C8788C78904294BFC4EB44
:106880000001C4EB0201001BCAB28242C8BF002251
:1068900033F91200F0BD002B37D08878904202D334
:1068A000B3F90200F6E7CC78B3F900009442F1D9CD
:1068B0004C789988013CA1F1FF06714203F104056F
:1068C000E4B2714103F10C07CEB2B44216D805EB25
:1068D000C1014FF47A756A43B1F902404968521A0E
:1068E00004EBD47102EB610292FBF4F29042D1DB33
:1068F000B3F902009042CDDC10B2CBE737F831C0DB
:106900004E1C9445E3D33146DEE70348C2E700BF9F
:106910000A920308B40F00200080FFFF08B5044866
:10692000FFF70AFFBDE8084001201CF020B900BFB6
:106930001092030800487047B43300207FB502224C
:10694000084B0949CDE901234FF00073CDE903134A
:10695000072301A94FF0FF3005931CF05DF907B044
:106960005DF804FB006A180000020600274B2DE9C1
:10697000F0411B681FF016F90128074620D920F0C6
:1069800099FD051E03DA01242046BDE8F081204B65
:106990001B78002B38D14FF050081E4C04EB080038
:1069A000A465C4F85C8020F0DCFE206680B9012478
:1069B000012FE9D9284620F093FD0028E4DAE2E728
:1069C000134B1B7803F0FF05002BE4D00024DBE71A
:1069D0000024114E214606F1100332460120346096
:1069E0007460B360C6F80C8020F06BFF306600283E
:1069F000DDD00321412015F0A8FC412000F018FC57
:106A00000122034B1A70D3E70024D3E7BC310020E6
:106A1000932D002030100020CC0F002008B54FF03F
:106A200098435B6CD90208D51FF0BCF802380128E6
:106A300003D8094B186E20F0C3FF4FF098435A6CEF
:106A4000D202FCD55B6D054A03F47023136041202C
:106A5000BDE8084000F032BCCC0F0020BC31002063
:106A60002DE9FF474FF000080E4617460446CDF8C3
:106A70000080002859D022B90025284604B0BDE87E
:106A8000F087002951D032F0030902F0030A1FD029
:106A90004FF0E063C0E9003801230191C0F808809D
:106AA0000293C0F8208049F0005301A9039320F01D
:106AB000ACFA4946204620F082FA20461DF0E2FF5B
:106AC000054628B14A46414630461CF057FDD4E7FA
:106AD000BAF1000FD0D04FF000084FF0E063C4E9E6
:106AE00000380123CDF804D00293114B204601A9B0
:106AF000C4F80880C4F82080039320F086FA0421AB
:106B0000204620F05CFA20461DF0BCFF054608B187
:106B10003A46D8E7009A4E44EB00013522FA03F3D7
:106B2000AA4506F8013BF7D1A6E72125A5E700BF56
:106B30000400002090B189B101234B60C368013B80
:106B4000012B08D88269064B1AB10A6000208B60BD
:106B50007047044AF9E74FF00053F7E721207047E8
:106B60000800002000A4030838B5134DFFF7FEFE0F
:106B7000124B134A1349144802F084FD2B7803F09A
:106B8000FF04BBB91FF00EF8012802D920F092FCD7
:106B900004462B782BB90D4B0D481B6898470123F1
:106BA0002B701EF0FFFF012804D92046BDE83840B5
:106BB00020F096BC38BD00BF942D002049C00208CB
:106BC0002BC0020863C002086DC00208E03100203B
:106BD0005420002006289ABF014B185C0020704703
:106BE00008A40308F8B5184F3B7803F0FF0413B16D
:106BF00000242046F8BD1EF0D5FF012806461AD90C
:106C000020F058FC051E1CDB3B786BB950230F4C61
:106C1000E018A465E36520F0A4FD2066012408B116
:106C20003C700024012EE4D9284620F059FC0028AD
:106C3000B8BF0224DDE73B7803F0FF05002BD7D176
:106C4000E4E70D24D5E700BF952D00209810002023
:106C500070B504460D4620F067F90C2C064616D890
:106C60000C2C18D8DFE804F01B1B171B1B2A171B62
:106C70002E17311734000123194AA34013421DD1A6
:106C8000062C2AD0DB0706D54FF4F06022E00D3C3D
:106C9000E4B2132CEFD9002321242B8009E08020BB
:106CA000FEF79AFB4FF6FF7398420CBF0E240024A8
:106CB0002880304620F033F9204670BD00230F2491
:106CC0002B80F6E74FF48060EAE74FF44060E7E797
:106CD0004FF4C060FEF762FBE4E74FF4E060F9E7D1
:106CE0001C450D0030B58BB06C46864D864820F0B3
:106CF000B4FA0FCD0FC42B68844A2360FF238DF8AC
:106D00000130D2F84C3113F4802340F0EF80D2F8F8
:106D100050218DF801309DF801306C46FF2B08BFE3
:106D2000252368467A4D8DF80130FEF727FC322086
:106D3000FEF762FC0FCD0FC40FCD0FC495E8030022
:106D400084E80300714BD3F84C21120340F1B28068
:106D5000A3F5FE431C88B4F5807F28BF64248DF81A
:106D60001940FEF705FC044484F3080469488DF8D3
:106D70001840FCF71DFE6846FEF73AFB3220FEF78E
:106D800041FC6548FEF740FD6448FEF7B1FD644CE8
:106D9000644820F062FA0020FEF73AFCFEF7EAFCB5
:106DA000236F002023F0070343F003032367FEF75C
:106DB0000BFD236F5C4923F4744323675B4BD3F8CB
:106DC000FC2012F0807279D1D4F8803023F00303D4
:106DD00043F00103C4F88030C1F88020504CD4F84F
:106DE000203123F0070343F00203C4F82031D4F824
:106DF000283123F0070343F00203C4F82831D4F804
:106E0000803123F0030343F00103C4F88031D4F848
:106E1000403123F0030343F00203C4F84031D4F8B7
:106E2000603123F0030343F00203C4F86031D4F867
:106E3000403223F0030343F00203C4F84032D4F895
:106E4000003223F0070343F00203C4F80032D4F801
:106E5000083223F0070343F00203C4F80832D4F8E1
:106E6000703223F0030343F00103C4F87032D4F806
:106E7000203223F0070343F00103C4F82032FEF769
:106E800075FA4FF0E0220020136943F00403136108
:106E9000D4F8603223F0070343F00103C4F86032F2
:106EA000D4F8943223F0070343F00103C4F894327A
:106EB0000BB030BDD3F85041E4B250E7D3F8FC201A
:106EC00022F08072C3F8FC20D4F8802022F0030264
:106ED00042F00102C4F880200022C1F88020D3F8DB
:106EE000FC2042F08072C3F8FC2077E74FF07E630D
:106EF00093F89C2093F99C30002BFFF60CAF8DF893
:106F0000012008E72CA4030870A403080080E00F08
:106F100040A40308C017530200B4C404C0EA21010E
:106F20000080005078A403080090005000ED00E0BD
:106F300007B5094B18689A889B7900906846ADF8A8
:106F400004208DF80630FEF745FE0C20FEF77AFE91
:106F5000002003B05DF804FB68A4030870B501F0DD
:106F6000C7F90446E8B901F04DFA1EF06FFC4FF482
:106F7000167343430C4A03F5742303F23F23B3FB18
:106F8000F2F30A490A480B600A230268094D0E68A9
:106F9000013B45F8046B0E6813F0FF033244F6D151
:106FA0000260204670BD00BF40420F00301100203B
:106FB0000011002004110020012208B5034B1A70B3
:106FC00020F0FBF9024B186008BD00BF962D002091
:106FD000FC10002010B51EF039FC04461FF093FF92
:106FE000844207D920F0F5F920B10122024B186044
:106FF000024B1A7010BD00BFFC100020962D00201F
:10700000F8B51F4C2378E3B120F0D7F91D4B1E4D86
:107010001B68C01A28602B68A3B12B682B601EF078
:1070200015FC4FF416725043184A00F5742000F214
:107030003F20B0FBF2F02B682B68834204D9002379
:107040002370F8BD0123E9E71148124E037829683F
:1070500056F82320104F511A3A68521A29683A609C
:1070600046F823100A210932B2FBF1F20B4D01332D
:10707000DBB22A60B3FBF1F201FB12330370DEE7EF
:10708000962D0020FC1000202C11002040420F0003
:10709000972D002004110020001100203011002045
:1070A000014B1868704700BF30110020F8B503216C
:1070B0002C2015F04AF904264FF480120D4C0E4B8B
:1070C0000E4F04F500555A662C206F676E672F67C8
:1070D0002E6700F0F3F82C2000F0AAF84FF00072B1
:1070E00004F580535F675E67AA624FF480529A622C
:1070F000F8BD00BF0040005A00900050010000A001
:10710000064B074A996D11F0050F01D0117811B1A6
:107110000028F7D170470120704700BF0040005A97
:10712000982D0020164B10B51C6F14F0040111D0DF
:10713000144A1167082191629B6DDA0701D4FFF7A9
:1071400049FF00F0EDFF00F0CDFF01201EF0DAFB5B
:1071500020F041F9E30706D501220A4B1A67FFF731
:107160004FFF00F0BFFF14F000521CBF054B1A6721
:10717000002CBEBF4FF00042024B1A6710BD00BF8B
:107180000040005A0060005A0028ACBF00F1604087
:10719000064B4FEA0111C9B2ABBF00F5614000F0E8
:1071A0000F0080F800131954704700BF14ED00E081
:1071B0000028ABBF00F16040054B00F5614000F0D6
:1071C0000F00ACBF90F80003185C0009704700BFC7
:1071D00014ED00E008B51FF0A7FE0B4B1A7872B94A
:1071E00001221A701FF09BFE6FF00402104601325C
:1071F000052152B2FFF7C8FF4C2AF7D108BDBDE800
:1072000008401FF08CBE00BF992D002000280CDB29
:1072100001220649430900F01F008240203341F853
:107220002320BFF34F8FBFF36F8F704700E100E063
:10723000002807DB01234109034A00F01F008340B7
:1072400042F82130704700BF00E100E0054B4211D9
:1072500053F8223000F01F0023FA00F0C04300F082
:107260000100704700E100E0014608B5EFF310832C
:10727000DB0702D50122104608BDFFF7E7FF0246F3
:107280000028F7D148B2FFF793FF0146EFF31183CF
:1072900013B1B0EB131FEDD2074B5B68C3F30803C8
:1072A000002BE8D0103B58B2FFF782FF814234BF79
:1072B00000220122DFE700BF00ED00E0002808DB2C
:1072C00001224309034900F01F008240603341F866
:1072D0002320704700E100E073B504461FF01BFE59
:1072E000054620F072F960B10E4E3378FF2B8DF811
:1072F000073006D10DF10700FCF7C0FB9DF8073001
:107300003370094B28461C601FF000FE20F05DF929
:1073100028B1224600209DF8071014F04FF90020F4
:1073200002B070BDCC3300203411002073B51FF0C3
:10733000F2FD0D4D0D4B2E781C681FF0E7FD20F07F
:1073400044F938B1FF2E05D00020297801AA14F0A5
:107350002EF9019C2CB91FF0DEFD054B1C681FF0B7
:10736000D5FD204602B070BDCC3300203411002082
:107370003811002010B504461FF0CDFD024B1C60F3
:107380001FF0C4FD002010BD3811002038B50446A0
:10739000D0F870311D68AB6C5906FCD5002394F809
:1073A00079111A4694F87801FEF7CCFE002394F880
:1073B0007B111A4694F87A01FEF7C4FE94F88031E6
:1073C000DA0707D5002394F87D111A4694F87C015A
:1073D000FEF7B8FE94F880319B0707D5002394F898
:1073E0007F111A4694F87E01FEF7ACFE012205F5E6
:1073F00000531A65042200211A652846094D14F02D
:107400002BFBD4F874011FF02BFF284604F5C27142
:1074100014F0C1F82B6813B9034800F0D5FD002023
:1074200038BD00BF3C11002040110020012910B5DB
:1074300002D9022914D010BD134B1C68A4F5C274E4
:1074400014F5C27FF7D0D4F874011FF006FFD4F80A
:1074500070310521186814F0FFFAD4F88441EDE783
:10746000094B1C68A4F5C27414F5C27FE3D094F8EC
:10747000973033B994F895301BB9D4F874011FF0E4
:10748000EFFED4F88441EDE73C1100202DE9F047F0
:107490001D4613688EB01F6891F8313081468846CA
:1074A000144606AE002B00F0F180DFF820C2BCE8E5
:1074B0000F000FC69CE80F0086E80F00182200217D
:1074C00068461CF05BF8A3680893237B012B00F04F
:1074D000E080022B0CBF4FF440730023ADF8263040
:1074E000637B4FF0010A032B8CBF4FF480536C4A2F
:1074F000CDF834D098BF32F813308DF806A0ADF82F
:107500002830A37B29465A1E022A88BF0023654AD9
:107510008DF80030D8F8383048461A60624A5A6010
:10752000624A9A60624ADA60424600F047FB0646C9
:10753000002840F0A78023695E48C5F87431237E97
:1075400085F87B31E37D85F87A31A37D85F8793143
:10755000637D85F87831A37E85F87D31637E85F87B
:107560007C31237F85F87F31E37E85F87E31236887
:10757000C5F870311FF071FE53460422A17D607D75
:10758000FEF7E0FD5346217E0222E07DFEF7DAFDA4
:1075900085F8806120691FF060FE98F83130384628
:1075A00006A9002B78D014F07EFA95F8803143F0CC
:1075B000040385F880311421227D3F4B03EB4210F8
:1075C000C0F8941494F816C0617D253241EA0C414C
:1075D000C0F8AC14207EE17D03EB421341EA004188
:1075E0005960A37B03F0FD03012B0BD195F880318B
:1075F000022243F0010385F88031A17E0023607EE2
:10760000FEF7A0FDA37B023B012B0BD895F8803140
:10761000042243F0020385F88031217F0023E07EBD
:10762000FEF790FD95F88031DB0717D5A17E627ECD
:10763000237D42EA014241F29C415B0103F1A043F8
:1076400003F570335A5041F2944202219950217F40
:10765000E27E03F5A55342EA01421A60174B1B680C
:107660001BB91749174800F09DFC144805F5C27175
:1076700013F07EFF144A07F5005305213846DA64FB
:1076800014F0EAF930460EB0BDE8F087DFF840C0EC
:107690000DE74FF4007321E714F009FA8BE700BF00
:1076A000ACA4030801C4020833C4020817C40208CA
:1076B0008D7301087CA4030800C003503C11002016
:1076C000C031002040110020FF3F0D03B4A4030887
:1076D000D4A40308034B02221868002380681946CB
:1076E00011F01EBEB8320020302337B5007D0DF1F9
:1076F0000701434303F1A04303F58023DD6E1C6FB4
:107700001DF0F2F89DF8070040B9054B9D4203D1EA
:1077100084F00204C4F3400003B030BD0120FBE755
:107720009A2D00203021037D02464B4303F1A043F4
:1077300003F58023D86E07491B6F884208D113F0E8
:10774000020006D0106A136D1B1A58425841704748
:10775000002070479A2D00207FB504460D4690F812
:10776000A1601EF01FFA022817D1D5B1AEB9114B96
:107770006846CDE9003604F1FC030293202303930D
:107780001FF03FFFC4F8F800204614F0B4FE20B903
:107790000121D4F8F8001FF04AFF84F8A15004B08A
:1077A00070BD002EF9D0D4F8F8001FF0C8FFC4F85F
:1077B000F850F2E7F4A403082DE9F743D0E90434C4
:1077C00004F17C07D0F80C900646013B1022002102
:1077D0003846D4F874809DB21BF0D0FE0B4BC5F335
:1077E0000A0543EA0513C4E91F39012394F8780018
:1077F00084F88C30C4F884803A46054B009604F136
:107800006401FCF74DFD03B0BDE8F08300001030CB
:1078100013C502082DE9F04F04464FF444764FF0AB
:1078200030093F4D00F138071022002185B038465D
:107830001BF0A4FE6687C4E90F55207DFCF756FDBA
:107840001022002138461BF099FE6687207D354EB8
:10785000C4E90F5509FB0063DB6EAB4204D105B0F0
:10786000BDE8F04FFCF762BD0DF10B011DF03CF8D7
:107870009DF80B50002D4CD1204614F020FE804680
:1078800003A9207D1DF052F8039B2946013B1FFAF6
:1078900083FB04F118031D4610221846D4F810A0EB
:1078A0001BF06CFEA169204ACBF30A031B010A40BE
:1078B00043F040731343C4E9063A237DC4F82080A3
:1078C00009FB0366336F94F824205B0863F34102DD
:1078D00084F82420326F94F8243025F0030562F3F5
:1078E000000384F82430336F626A9B0863F39F02BD
:1078F00045F002056262656400943A4621460B4BEE
:10790000207DFCF7CDFC207DFCF710FD05B0BDE827
:10791000F08F94F844306FF3410384F84430EBE780
:107920009A2D0020000004500F80FFFC81C5020842
:107930002DE9F04F8DB004469946089106921EF04D
:1079400031F90228054613D14FF0FF31D4F8A400D5
:107950001FF044FF002840F02C8194F8A1303BB187
:107960004FF0FF332A460121D4F8F8001FF0B3FE90
:107970000023C9F80030D9F80050069B5E1B00F0C8
:10798000A280089B5D1900F09E80204614F0B3FD94
:107990008346002840F09780204614F090FD216D2A
:1079A00094F89AA088429BBFD4E912329B18431ADC
:1079B0005B1A9E4228BF1E46BAF1000F00F0BB8042
:1079C0001FF0B2FA236D079020460993FFF78CFE53
:1079D0003746099B804698198342D4F89C1040F0A2
:1079E0008380D4E912030344994208BFC4F89C0081
:1079F00007981FF094FAC246207DFCF777FC0DF142
:107A00002F01207D1CF070FF204614F058FD236DDF
:107A10008346984240F29D80A26CB5B2934240F0FA
:107A20009080099304F12808236910220021404620
:107A300007931BF0A3FD3021079B013DE362099BE7
:107A4000C5F30A052363237D2D014B4328F003086A
:107A500003F1A04345F0407548F0020203F580238E
:107A6000A5621A67236DD4E9121233440A44934283
:107A700008BF0B465B4523650DD194F8A13023B1B7
:107A80000121D4F8F8001FF0FFFD0123204684F8FF
:107A90005430FFF7BFFE207DFCF748FC94F89A3085
:107AA0003BB1BAF1000F04D0236E112120465B6870
:107AB000984747B1D9F80030069A3B449342C9F839
:107AC0000030FFF458AF1EF06DF8022803D1D4F84F
:107AD000A4001FF0A8FED9F80030002B14BF00202E
