:020000040801F1
:10200000D8070020B13101088FAB02088FAB02085E
:102010003DC502088FAB02088FAB02088FAB0208E8
:102020008FAB02088FAB02088FAB02088D630308E9
:102030008FAB02082882030831630308AD690308E7
:102040008FAB02088FAB02088FAB02088FAB020880
:102050008FAB02088FAB02088FAB02088FAB020870
:102060008FAB02088FAB02088FAB0208752D0108F9
:10207000A1AA02088FAB02088FAB02088FAB02083F
:102080008FAB02088FAB02088FAB02088FAB020840
:102090008FAB0208493C01088FAB02088FAB0208E6
:1020A0008FAB020855380108353801088FAB02089C
:1020B0008FAB02081D7C0208C9860208292A030882
:1020C000252A0308597E02083F2A03082D2A0308FF
:1020D00099860208312A03080987020871870208D5
:1020E0008FAB02088FAB02088FAB02088FAB0208E0
:1020F00083B902088FAB02088FAB02088FAB0208CE
:102100008FAB02088FAB02088FAB02088FAB0208BF
:102110008FAB02088FAB02088FAB02088FAB0208AF
:102120008FAB02088FAB02088FAB02088FAB02089F
:102130008FAB02088FAB02088FAB02088FAB02088F
:102140008FAB0208F96201088FAB02084F690308E0
:102150008D6102088FAB0208132A0308192A0308AD
:102160008FAB02088FAB02088FAB02088FAB02085F
:1021700007B588B10BA3D3E900230949C1E90223BC
:10218000CDE900234FF0FF324FF0FF3308691FF015
:1021900022FF03B05DF804FB00220023EDE700BF3F
:1021A000F80700200DD50155200000000348044B1E
:1021B000834202D0034B03B118477047F03300202D
:1021C000F033002000000000064B0749C91A8910AF
:1021D00048BF0131491003D0044B0BB101481847E7
:1021E000704700BFF0330020F033002000000000F3
:1021F00010B5064C237843B9FFF7D8FF044B13B151
:102200000448AFF300800123237010BD662D002029
:102210000000000064DC030808B5054B1BB105494C
:102220000548AFF30080BDE80840FFF7CDBF00BF11
:1022300000000000580A002064DC0308A3F5803A7F
:10224000704700BF174B002B08BF134B9D46FFF78D
:10225000F5FF00218B460F461348144A121A20F04E
:10226000ADFC0E4B002B00D098470D4B002B00D03F
:1022700098470020002104000D000D48002802D0DE
:102280000C48AFF3008016F00FFE200029001AF072
:1022900073F916F073FC00BF000008000000000096
:1022A00000000000D8070020D807002020300020C0
:1022B000000000000000000030B585B00DF10B05F6
:1022C000012200211D20009503AB0CF05BFC0446AD
:1022D000C8B92A4601211D200CF0B0FC044690B973
:1022E000032000F05DFE70B1084D0949286819F01F
:1022F0009AFB18F0DEFB18F0DDFB9DF80B2005497A
:10230000286819F090FB204605B030BDB40C0020C1
:10231000F87B0308FD7B0308014B186818F081BCAB
:102320006030002037B500F079FB002847D0254BFE
:10233000186818F06DFC08B101283ED18DF807002F
:10234000012200211D200DF107030CF04BFC044677
:10235000B0B9032000F024FE70B11B4C1B4920686B
:1023600019F061FB18F0A5FB18F0A4FB9DF80720FD
:102370001749206819F057FBFFF79EFF0446F0B19C
:10238000012000F00DFED0B10F4D1249286819F060
:102390004AFB18F08EFB18F08DFB23460E4A0F49BE
:1023A000286819F040FB204600F040FE0C492868E0
:1023B00003B0BDE8304019F036BB0124E0E703B0BC
:1023C00030BD00BF60300020B40C0020F87B030853
:1023D000187C0308337C0308387C03083B7C030823
:1023E0003B7D0308F0B50368A54A23F47F4323F03F
:1023F0000703934289B000F07D8109D8A14A934236
:1024000036D002F5A022934200F0628109B0F0BDFF
:102410009D4A934200F0F68102F180629342F5D129
:10242000B0F805001B28F1D102AB00930122002176
:1024300004AB0CF0A7FB0446002840F099819DF8FE
:102440000830002B40F0B181904B186818F0C0FCA8
:10245000032000F0A5FD0028D8D08D4C8D492068C0
:1024600019F0E1FA18F025FB18F024FB8A4905E180
:102470008A4D28460EF03CFF044618B3844D884927
:10248000286819F0D0FA8749286819F0CCFA18F0B2
:1024900010FB18F00FFB844B844A0093844972238D
:1024A000286819F0C0FA83492346834A286819F03E
:1024B000BAFA204600F0BAFD8049286819F0B3FA4C
:1024C00000BEFDE77E4B214618689A889B790290F2
:1024D000ADF80C208DF80E300722287802AB0EF0F4
:1024E00041FF064618B36A4C6D49206819F09BFA03
:1024F0006C49206819F097FA18F0DBFA18F0DAFA4C
:10250000694B6A4A00936A497E23206819F08BFA66
:1025100068493346684A206819F085FA304600F069
:1025200085FD6649206819F07EFA00BEFDE704AC1F
:102530002346644A02F108072646106851680832AB
:1025400003C6BA423446F7D110681279306032714E
:1025500001210D2228780EF005FF044618B34C4DDA
:102560004F49286819F05FFA4E49286819F05BFA5C
:1025700018F09FFA18F09EFA4B4B4C4A00934C49C6
:102580008823286819F04FFA4A4923464A4A28689E
:1025900019F049FA204600F049FD4849286819F029
:1025A00042FA00BEFDE7A0220090034611462878BB
:1025B0000EF0B8FE064618B3354C3949206819F0BC
:1025C00032FA3849206819F02EFA18F072FA18F029
:1025D00071FA354B354A009335499123206819F03B
:1025E00022FA34493346344A206819F01CFA30463E
:1025F00000F01CFD3149206819F015FA00BEFDE716
:10260000287802210EF0C4FE054618B3204C244958
:10261000206819F008FA2349206819F004FA18F024
:1026200048FA18F047FA204B204A00932049962395
:10263000206819F0F8F91F492B461F4A206819F045
:10264000F2F9284600F0F2FC1C49206819F0EBF979
:1026500000BEFDE71C4B186818F0DFFA032000F0FD
:102660009FFC00283FF4D2AE094C0A49206819F0BB
:10267000DAF918F01EFA18F01DFA1449206891E0F2
:10268000A0000601A0000100A0000A0364300020A1
:10269000B40C0020F87B0308C37C0308C43300207B
:1026A0000C7D0308507C03083C7D0308557C03081F
:1026B000617C03083B7C0308387C03086D7C0308BD
:1026C000267D03082E7D0308603000207E7C0308F1
:1026D000032000F065FC00283FF498AE704C71496F
:1026E000206819F0A0F918F0E4F918F0E3F96E4940
:1026F0002068C0E0032000F053FC60B1684C6949D9
:10270000206819F090F918F0D4F918F0D3F9674956
:10271000206819F088F9664B022118780EF038FE0F
:10272000054600283FF472AE5D4C6249206819F0FE
:102730007AF96149206819F076F918F0BAF918F0B9
:10274000B9F95E4B5E4A00935E49AF23206819F0E9
:102750006AF95D492B465D4A206819F064F92846FC
:1027600000F064FC5A49206819F05DF900BEFDE7ED
:10277000012000F015FC00283FF448AE484D5549B3
:10278000286819F050F918F094F918F093F94E49A7
:1027900023464E4A286819F046F9204600F046FCC8
:1027A0004D49286819F03FF930E6012B14D14B4B05
:1027B000186818F00AFB032000F0F2FB00283FF431
:1027C00025AE374C3749206819F02DF918F071F90A
:1027D00018F070F9424951E7012000F0E1FB0028B0
:1027E0003FF414AE2E4C3B49206819F01CF918F048
:1027F00060F918F05FF99DF808203A49206819F04F
:1028000012F903E6B0F805301D2B7FF4FFAD038904
:102810000320DB0734D500F0C3FB60B1204C214915
:10282000206819F000F918F044F918F043F92E491E
:10283000206819F0F8F8FFF73FFD044600283FF440
:10284000E5AD012000F0ACFB00283FF4DFAD144DF6
:102850002049286819F0E7F818F02BF918F02AF940
:1028600019492346194A286819F0DDF8204600F076
:10287000DDFB1949286809B0BDE8F04019F0D3B86C
:1028800000F08EFB00283FF4C1AD054C05492068DF
:1028900019F0C9F818F00DF918F00CF9134927E7E9
:1028A000B40C0020F87B03089B7C0308AF7C030872
:1028B000C43300200C7D0308507C03083C7D0308D2
:1028C000557C0308617C03083B7C0308387C0308C3
:1028D0006D7C0308337C03083B7D030864300020D3
:1028E000CD7C0308D67C0308F77C03080E7D030823
:1028F000034B1B68834201D100F07AB8704700BFD8
:102900006030002013B52B4B4FF400720193182355
:10291000294900932948002325F057F801281FD0A2
:10292000274C2849206819F07EF82749206819F0BB
:102930007AF818F0BEF818F0BDF8244B244A00933A
:1029400024494123206819F06EF82349234A20685E
:1029500019F069F82249206819F065F800BEFDE712
:1029600000214FF6FF7024F089FF1E4B1860F8B964
:10297000134C1449206819F056F81349206819F0CF
:1029800052F818F096F818F095F8104B104A00938A
:1029900010494423206819F046F80F49124A20686C
:1029A00019F041F81149206819F03DF800BEFDE723
:1029B00002B010BD740A00204B7D0308C9A90208AB
:1029C000B40C00200C7D0308507C0308E97D03084B
:1029D000547D0308617C0308747D0308667D030849
:1029E0008C7D0308700A0020AE7D0308C77D0308B4
:1029F000002307B50193084B01A9186824F083FD53
:102A0000019B2BB14FF0E0234FF08052C3F8042D0F
:102A100003B05DF804FB00BF700A002008B5054B49
:102A20004FF0FF31186824F0D2FD431E5842584140
:102A300008BD00BF700A002030B503687E4A23F449
:102A40007F4323F00703934289B040F0F3800622CE
:102A500000211620794B0CF0C5F8044618B3784DC8
:102A60007849286818F0DFFF7749286818F0DBFFFD
:102A700018F01FF818F01EF8744B754A009375494A
:102A80006C23286818F0CFFF73492346734A2868DF
:102A900018F0C9FF204600F0C9FA7149286818F0FB
:102AA000C2FF00BEFDE70146082212206D4B0CF06C
:102AB00099F8044618B3624D6249286818F0B3FFCC
:102AC0006149286818F0AFFF17F0F3FF17F0F2FF25
:102AD0005E4B5F4A00935F497823286818F0A3FF94
:102AE0005D4923465D4A286818F09DFF204600F0A6
:102AF0009DFA5B49286818F096FF00BEFDE7014685
:102B000003221420584B0CF06DF8054618B34C4CBA
:102B10004C49206818F087FF4B49206818F083FF64
:102B200017F0C7FF17F0C6FF484B494A00934949C1
:102B30008623206818F077FF47492B46474A2068CC
:102B400018F071FF284600F071FA4549206818F026
:102B50006AFF00BEFDE70DF10F0104A80EF03CFC7A
:102B6000044618B3364D3749286818F05CFF3649DB
:102B7000286818F058FF17F09CFF17F09BFF334BA5
:102B8000334A009333499523286818F04CFF3249A3
:102B90002346324A286818F046FF204600F046FADD
:102BA0002F49286818F03FFF00BEFDE7BDF814303C
:102BB00001465BBAADF818309DF8133008228DF845
:102BC0001A30FF238DF81B30FE238DF81C309DF842
:102BD000123018208DF81D30BDF810305BBAADF8FA
:102BE0001E3006AB0BF0FEFF054618B3144C15491A
:102BF000206818F018FF1449206818F014FF17F027
:102C000058FF17F057FF114B114A00931149A523A4
:102C1000206818F008FF10492B46104A206818F069
:102C200002FF284600F002FA0D49206818F0FBFE6A
:102C300000BEFDE709B030BDA0000100667E0308BC
:102C4000B40C00200C7D0308507C0308267E03088A
:102C5000F57D0308617C03083B7C0308387C03088E
:102C60006D7C03085E7E03085B7E0308064B1B68D1
:102C70001A7A022A04D812B11B68044A13607047FA
:102C8000032AF9D0704700BF2C300020780A0020BA
:102C900030B5204DA3B00BAC0FCD0FC495E80F009D
:102CA00084E80F000023CDE902330493CDE9073314
:102CB000CDE91F3309934FF4702313AC019301AD99
:102CC0000FCD0FC4144B06AD2360144B18AC069304
:102CD0000FCD0FC4124B13A92360124B0BAA1D93E7
:102CE00020231E9301238DF87D300F4B0F48219335
:102CF0000F4B04F039F804469DF87F304FF4E13073
:102D0000002B0CBF0321002117F033FF204623B016
:102D100030BD00BF308103083C00015B01000F00A3
:102D20004400015B672D002040300020040C00208F
:102D30007C0A002029B9074B186803684BB104F0DE
:102D4000ABBC012905D1034B186803680BB119F01E
:102D5000BBB870475430002008B50449044804F05B
:102D60008FFDBDE80840FFF793BF00BF583000203B
:102D7000300C0020014818F084BE00BF040C002075
:102D8000014817F040BF00BF50810308014818F008
:102D900019B800BF6881030818B1034B1860002000
:102DA00070472520704700BF380C002010B5054C37
:102DB0000549206801F012F92068BDE81040FFF7CE
:102DC000EBBF00BF9431002068300020014B186831
:102DD000704700BF380C0020044B834205D1044BE0
:102DE0001B7813B1C8B20EF0E7BA7047A00C0020F0
:102DF000872D002030B5002503685A4A23F47F430D
:102E000023F0070385B0934204460295ADF80C50B9
:102E100000F0828002F1C06202F5802293420DD060
:102E2000514A934240F09C80504B1B78002B00F09D
:102E3000978005B0BDE8304019F0F0BBB0F8053020
:102E4000212B40F08D80FF2304A91A4611E90300CD
:102E500017F028FE012814BF41F2FC15434B05F082
:102E6000FC0208BF1870212120790BF0D1FE054625
:102E700018B33F4C3F49206818F0D5FD3E49206803
:102E800018F0D1FD17F015FE17F014FE3B4B3C4A2D
:102E900000933C495923206818F0C5FD3A492B4658
:102EA0003A4A206818F0BFFD284600F0BFF83849BC
:102EB000206818F0B8FD00BEFDE736490090237980
:102EC000354A0968354800F0D1F80546002847D052
:102ED000274C2849206818F0A6FD2749206818F0DB
:102EE000A2FD17F0E6FD17F0E5FD244B244A009300
:102EF00024496223206818F096FD23492B46234A73
:102F0000206818F090FD284600F090F820492068CD
:102F100018F089FD00BEFDE7B0F80530B7EE047A81
:102F200007EE903AF8EE677AB0F8073067EE877AE6
:102F3000013307EE103AB8EEC77A67EE877AB1EE42
:102F4000047A67EE877AFAFE677AFCEEE77A17EE84
:102F5000903AB3F57A7F38BF4FF47A730D4A136015
:102F600005B030BDA0000602A0000601872D00209C
:102F7000B40C00200C7D0308507C0308F581030885
:102F800080810308617C03083B7C0308387C0308CC
:102F90006D7C030898310020D92D0108A00C002079
:102FA0000B4B02461B7883B10A4B1B78834234BF1C
:102FB00000200120084B1B7833B1084B1B781341CC
:102FC00013F0010F08BF002070470120F2E700BF97
:102FD000CA330020C9330020882D0020C8330020C8
:102FE000012208B5074B1A700022074B1A70042201
:102FF000064B1A701F22064B1A7003F005FE054B94
:10300000186008BDCA330020882D0020C933002075
:10301000C8330020B40C0020024B0349186818F094
:1030200002BD00BFB40C00201582030870B50C4C23
:103030000C490646206818F0F6FC03F0E5FD05464D
:10304000206803F0B7FD3046FFF7E6FF284603F09F
:10305000B1FD20680449BDE8704018F0E4BC00BF31
:10306000B40C002017820308198203082DE9F743E6
:103070000546914698460E469DF8287049B10028AD
:1030800038D017F020FD012809D1012003B0BDE898
:10309000F0838FBB002814BF21202220F6E70024F4
:1030A0004FF47A7C40F2E73021464FF47A72E6FB27
:1030B0000C01002315F0D2FB124B014600933A4657
:1030C0002B46114824F0EFFC0646B8B1C5E90009CB
:1030D000C5F808802F7422F06FFA234602460121BA
:1030E0003046009423F040F8012809D0284617F014
:1030F000EAFCCAE72220C9E72120C7E71920C5E773
:103100002046C3E7B7AA02081C82030808B5034893
:1031100023F029FBBDE8084017F071BC5C9503085B
:10312000014823F020BB00BF5C95030813B50820BD
:1031300017F0D9FDFFF74AFE0123009390F83630CF
:10314000124C022B20601FD1006802F00BFC236898
:1031500020F07F4093F83530023B012B94BF0323CE
:10316000002340EA83700190684617F0C6FC0222F3
:10317000074B6846CDE9002317F0BFFC082002B0DA
:10318000BDE8104017F0BABD0020E0E7B80C002001
:10319000006A18100348044A0449121A921017F0E2
:1031A000F7BC00BF802101088021010820300020E9
:1031B00008B5154B83F30A8800F030F8FFF7EAFFF3
:1031C000124B13498B4212D30020124B12498B42EF
:1031D00018D3FFF737F8186850F82240586840F8BD
:1031E0002240013298688242F5D30C33EAE700228C
:1031F000F8E71C6844F8220001325C68A242F8D368
:103200000833E4E70022F8E7080000206CDC03083C
:1032100078DC030878DC030878DC03084FF480418D
:10322000124B134A70B59A60D3F88820114D42F4BE
:103230007002C3F88820104A05F5005491664FF0DB
:10324000FF3222660D4A62660222C3F8D020BFF325
:103250004F8FBFF36F8F4FF44036002003F09CFC7C
:103260000020E66003F052FC2E6170BD00ED00E02E
:10327000002001080080004400900050F7FF370054
:10328000014B1860704700BFA0310020054B18604B
:10329000054B1B6F03F00703032B01D120F0C0BCCB
:1032A000704700BFA8310020008000504FF000633D
:1032B0009B6A03F17842B2F5903F03D21968064A3F
:1032C000914203D000230370836070470122027093
:1032D0009A689B694260F7E707B0CD5E4FF00063E4
:1032E0009B6A10B503F17842B2F5903F11D219688C
:1032F000094A91420DD1094C227812F0FD0F01D0FC
:10330000002010BDDB6998470028FAD10123237003
:10331000F6E74FF48170F4E707B0CD5E892D002009
:10332000024B034A1A6018F02EBB00BF00000020B9
:1033300002020FF0BFF34F8F0549064BCA6802F433
:10334000E0621343CB60BFF34F8F00BFFDE700BFC8
:1033500000ED00E00400FA0540B1054A1378012BA6
:1033600004D80370013300201370704701207047A8
:103370008A2D002030B5056887B0AB880446184810
:10338000ADF80C3023F0EFF90022012103A800F082
:10339000FDF80DF10B0103A817F0E8FC9DF80B30C8
:1033A00083F001032B70AB79022B15D14FF0FF3363
:1033B0000022CDE9043304A90A4B009403A800F0CD
:1033C000E7F9049B009401330CBF04220122054B52
:1033D00005A903A800F05CF9002007B030BD00BFCC
:1033E0005C9503082BAC0208002307B5294801931C
:1033F00023F0B9F94FF44073012204216846ADF877
:10340000003000F0C3F80122234B0520C3F8442408
:1034100001A923F0A3F9002839D1204BD3F8F020DB
:1034200042F00102C3F8F020D3F8FC2042F0807291
:10343000C3F8FC201A4AA3F55D431A60019B194AA0
:1034400003F5D52303F2FC43B3FBF2F3164A013B29
:1034500013610223C2F8F0304FF48073C2F80433D2
:103460004FF06043114AC3F8B02F114AC3F8802EC1
:10347000D3F8002E42F48072C3F8002EFF2283F8A6
:103480002020D3F8002E22F48072C3F8002E03B05F
:103490005DF804FB5C95030800D0035000ED00E0EC
:1034A000FF030040F8590D00000004E055CEACC504
:1034B000090001004FF06043D3F8802E30B5D207E9
:1034C00015D501240B4D8440D5F8FC2042F08072C4
:1034D000C5F8FC20D3F8002E2243C3F8002E53F881
:1034E0002020002AF0D003F82010002030BD112049
:1034F000FCE700BF00ED00E02DE9F04104460C259B
:103500004FF00108124E0CB314F001000BD0002054
:1035100024F0010405FB00625768002FF3D0916886
:10352000C0B2B847EFE72246013020284FEA5202E6
:1035300001D0D307F8D508FA00F20F2824EA0204D4
:10354000E8D9103805FB0062B432E5E7BDE8F08148
:10355000BC0C002008B50C4823F005F9192003F035
:10356000E3FA28B1192003F017FB192003F0CEFA73
:103570001A2003F0D9FA28B11A2003F00DFB1A2003
:1035800003F0C4FA002008BD5C9503082DE9F04162
:103590000E469046054618B30F2923D80378E3B1A9
:1035A000012B03D0022B18D0032B1BD13F236A78A9
:1035B000D340DB0716D50D4BD3F81043A4B922F046
:1035C00039FF074642462846314602F0AFFB3846EF
:1035D00022F02BFF2046BDE8F08140F2FF33E6E702
:1035E0002224F7E72124F5E70224F3E700C0035083
:1035F00010B50446E8B10378C3B1012B03D0022B08
:1036000014D0032B17D13F236278D340DB0712D5A8
:1036100022F010FF0122637821789A403023594329
:10362000064B5A5022F001FF002010BD40F2FF333C
:10363000EAE72220F9E72120F7E700BF40D0035056
:1036400010B50446E8B10378C3B1012B03D0022BB7
:1036500014D0032B17D13F236278D340DB0712D558
:1036600022F0E8FE0122637821789A403023594302
:10367000064B5A5022F0D9FE002010BD40F2FF3315
:10368000EAE72220F9E72120F7E700BF40E00350F6
:103690002DE9F0410D46164698460446002851D0C3
:1036A00000294FD002784AB1012A42D0022A05D01F
:1036B000032A3ED0FF2A07D0212041E040F2FF3309
:1036C0006278D340DA07F7D5022E01D9042EF3D160
:1036D00022F0B0FE23780746FF2B05D03246204665
:1036E000296802F069FB28602B68013309D123782F
:1036F000FF2B06D1144B6078D3F8241417F039FD52
:10370000286029684B1C17D00C23104A03FB0122A8
:10371000069BC2F8048093602378FF2B04D001231A
:103720000B4A8B40C2F82434384622F07EFE00203B
:1037300006E03F236278C4E7384622F076FE2D206B
:10374000BDE8F0812220FBE700C00350BC0C002044
:1037500000D003500F2810B5044613D822F06AFE9B
:103760000123094AA340C2F82034C2F824340C22B1
:10377000064B02FB04330024C3E9014422F055FE4A
:10378000204610BD2120FCE700E00350BC0C0020C7
:103790002DE9F0410D4690461F460446002842D0D0
:1037A000002940D0017849B1012933D0022905D040
:1037B00003292FD0FF2907D0212032E040F2FF3328
:1037C0006278D340DA07F7D522F034FE2378064634
:1037D000FF2B05D042462046296802F073FB286083
:1037E0002A68531C19D00C23104903FB0211069BB5
:1037F000C1F8B870C1F8BC302378FF2B05D0012385
:10380000103293400A4AC2F82434304622F00DFEAA
:10381000002006E03F236278D3E7304622F005FE21
:103820002D20BDE8F0812220FBE700BFBC0C00206A
:1038300000D0035008B502F05FFA054B00F0553098
:1038400020F05020C3F82004BDE80840FFF754BE24
:1038500000E0035008B502F04FFA054B00F0AA3023
:1038600020F0A020C3F82004BDE80840FFF744BEC4
:1038700000E0035013B504460A4822F074FFA27812
:103880000421B2FA82F2237852098DF80430637869
:103890000DEB01008DF80530FFF778FE002002B037
:1038A00010BD00BF5C9503082DE9F04F9A46564BBA
:1038B00085B01B7806460F461546DDF83C909DF80E
:1038C00044B0DDF85080002B00F09780072A00F20A
:1038D00096800E9B002B00F09280B9F1000F00F053
:1038E0008E80129BB3F5006F00F38980012803D10D
:1038F000109B002B00F08380444B03EB05131B7BD4
:10390000002B7ED0424C1022002168461FF056F951
:1039100004EB45141022A7BB394620461FF04EF990
:1039200043F210036380BBF1000F03D1E37843F04F
:103930000303E370364A0E9B02EB451CCCE901936E
:10394000129B6901581E9DF84C30C0F30A0003F029
:1039500003039B0643EA001E53582E48012E00EA3B
:1039600003004EEA0003CDF800A0535017D0B8F181
:10397000000F2ED19CF8023068F304138CF802304B
:1039800027E0002120461FF019F94FF444736380AB
:10399000BBF1000FCED1E37843F03003C9E7132326
:1039A0000CF1100ECCF80C309CE80F008EE80F00E4
:1039B0006FF00301DCF81C20109B61F39F02012FC4
:1039C000CCF81C20CCF8143003D1CCF81890CCF8EB
:1039D000043000270D4A290102EB051342F801804B
:1039E000159A28465A60694622469F605E7302F027
:1039F000ABF8384605B0BDE8F08F0748FAE707484E
:103A0000F8E70748F6E700BF8B2D0020240F0020C1
:103A1000240E00200F80FFF3028000F0018000F0F0
:103A2000078000F038B5124B05461B78DBB1E0B1DA
:103A300022F000FD0F4A00231146147B54B92B607D
:103A400001251A0101EB03131D738C5022F0EDFCCC
:103A5000204638BD0133082B02F11002EDD122F0CF
:103A6000E4FC0548F5E70548F3E70548F1E700BF42
:103A70008B2D0020240F0020048000F0028000F035
:103A8000018000F038B522F0D5FC002305460B4A32
:103A9000147B6CB90133082B02F11002F8D101F04C
:103AA000FFFF074B28461C7022F0BFFC204603E0B6
:103AB000284622F0BAFC034838BD00BF240F00207E
:103AC0008B2D0020058000F00D4B10B51B780446AF
:103AD00093B1072812D822F0ADFC0A4B03EB041374
:103AE0001A7B2AB100241C7322F09FFC204610BDD3
:103AF00022F09BFC0448FAE70448F8E70448F6E79C
:103B00008B2D0020240F0020068000F0028000F0A2
:103B1000018000F0154B13B51868002301908DF853
:103B2000043022F087FC124B1C7824B122F07DFC7B
:103B3000104802B010BD01221A7022F076FC0E4B24
:103B400001A81C731C7783F82C4083F83C4083F851
:103B50004C4083F85C4083F86C4083F87C40082339
:103B60008DF8073001F0C0FF2046E2E778820308B5
:103B70008B2D0020038000F0240F0020F8B50D4DA0
:103B80002D7885B1072810DC0B4D060105EB0014DC
:103B9000277B67B1AB510025069BA560636001F0F0
:103BA000D3FF2846F8BD0548FCE70548FAE7054875
:103BB000F8E700BF8B2D0020240F0020028000F0CA
:103BC000018000F0078000F00A4A08B512785AB167
:103BD00007280BD8084A02EB00131B7B43B10021D6
:103BE00001F074FF002008BD0448FCE70448FAE730
:103BF0000448F8E78B2D0020240F0020028000F0FD
:103C0000018000F0078000F00A4A08B512785AB126
:103C100007280BD8084A02EB00131B7B43B1012194
:103C200001F054FF002008BD0448FCE70448FAE70F
:103C30000448F8E78B2D0020240F0020028000F0BC
:103C4000018000F0078000F0184B2DE9F0411F6D56
:103C50005B6D1F4000D5FEE701260025144CDFF800
:103C60005880374218D02368C8F85060A3B1A168C3
:103C7000284601316268A1609847637B012B0BD114
:103C800050B90C4B03EB45131A7B60F341021A73D6
:103C90001A7F60F341021A770135082D4FEA460674
:103CA00004F11004DDD1BDE8F08100BF0000045034
:103CB000240F0020240E00200020045038B141B110
:103CC000013AB2F5006F044838BF0020704703483E
:103CD00070470148704700BF037000F0027000F0A9
:103CE000104930B50A78104B2AB9C3E90022C3E95C
:103CF000022201220A700C4900220C4654F8045B8F
:103D0000854208D00132042AF8D1002251F8044B30
:103D10001CB943F82200002030BD0132042AF5D13D
:103D20000248F9E78C2D0020A40F0020027000F05B
:103D3000002313B51D4A52F8044B94F82110814218
:103D40000ED00133042BF6D102B010BD0028FBD1F8
:103D50009DF80730002BF7D0A068FFF735FFF3E799
:103D600094F83530022BEFD1204617F0FBF8637E34
:103D70002076022BE8D194F8323003F0FF02002BBA
:103D8000E2D1A0680DF107018DF8072020F00CF8B2
:103D9000237E1BB194F83330002BD7D00023A068CA
:103DA00084F83330FFF730FFCEE700BFA40F0020C8
:103DB00010B50446FFF7AEFE002104F10800FFF73E
:103DC00031FE014608B1044810BD04F10C00FFF7B4
:103DD00029FE0028F8D0F6E70E7000F010B590F834
:103DE0003630044663B9042203685A619A6992071F
:103DF000FCD523790C4AB9335B011021995010BDD1
:103E0000022BFCD10068836CDB074CBF0521062127
:103E100017F042F9237941F294425B0103F1A04388
:103E200003F57033E9E700BF00C003502DE9F0410E
:103E300004461746FFF742FF88460646E8B91520B4
:103E400002F080FE0546E26A93889BB213B194F8B3
:103E50003230ABB194F83630BBB923689D6915F0A8
:103E6000020527D0012384F834304744B845206840
:103E700044D183699B06FCD545B33046BDE8F0814B
:103E8000002DE1D0FFF7E0FEDDE7022B12D1236821
:103E90009D6C15F002050DD0012384F834304744A1
:103EA0004745206831D142F22002836C32EA030395
:103EB000FBD1E1E72046FFF791FF012394F836504C
:103EC00084F83430002DD0D0022D1CD094F8363038
:103ED00003B3022BD1D12068816C11F0010118BF0E
:103EE000092117F0D9F842F29442102123795B019D
:103EF00003F1A04303F570339950BEE718F8011B96
:103F000017F023F9B2E70025C9E718F8011B17F0ED
:103F1000E5F8C5E710212379044A03F239135B0160
:103F2000D150082223685A61A7E700BF00C00350A0
:103F300010B5044680B190F832302BB917F012F862
:103F400010B9A068FFF740FE002094F8323001332A
:103F5000DBB284F8323010BD0048FCE7027000F09C
:103F600010B50446A0B190F832309BB190F83230D1
:103F7000012B05D116F0F6FF10B9A068FFF744FE3B
:103F8000002094F83230013BDBB284F8323010BDAF
:103F90000148FCE70148FAE7027000F0057000F004
:103FA00030B50025437F85B08DF8083090F821307A
:103FB000044604228DF80930039303A9064B0095AB
:103FC00002A8FFF765FB4FF4007320462383A57614
:103FD00016F0E1FF05B030BD313D01082DE9F0419B
:103FE00004468EB06B4F06AE0D460FCF0FC697E856
:103FF0000F0086E80F001822002168461EF0DEFD43
:10400000002C00F0C58025B9634E30460EB0BDE8E7
:10401000F0816422002120461EF0D0FD02232F688B
:1040200084F8363027602B7C20462371FFF758FE3A
:1040300006460028E9D12B7F84F83530AB6823662B
:10404000564B9F4200F09680554B9F42DCD14FF477
:1040500080135449544AC4E904230023616284F85C
:104060003130D5E9091284F83030A1624F480B8015
:104070004B808B8084F83030E262138053809380D1
:1040800084F8313084F8333022F06DFB636ADFF856
:104090002C81986822F067FB10212B7C08EB4312DF
:1040A000C2F894142E7BA87B253346EA0041C2F85F
:1040B000AC14697BEA7B08EB431341EA02475F607B
:1040C000E676E077217784F820206B7F0121637703
:1040D000AB7F204684F82130EB7FA37795F8203022
:1040E00084F8223016F0D7FE064600288DD1AB6842
:1040F000022608936B8A8DF82560ADF82830AB8ACC
:10410000CDF834D0ADF82630AB7D8DF82430AB69D6
:104110000B930123ADF8063022F08CF92A7F074675
:10412000032A2CD141F294412B7C08EB43135E50BF
:1041300095F82000E97F41EA004103F5A5500160B0
:10414000A87F697F41EA004141F29C4019508DF8F7
:10415000002006238DF818302B79286806A9A3B112
:1041600016F0C5FF2046FFF723FE0646384622F02C
:104170005CF94AE74FF470230D490E4A6BE7022AB7
:10418000E7D12046FFF70CFFE3E716F0ACFFE9E7C5
:10419000094E3AE798820308037000F00000015BC3
:1041A00000000A5074950308010010005C95030894
:1041B0008095030801000F00027000F000C003505A
:1041C000044BD3F88420D206FBD4D3F88400C0F388
:1041D000811070470040005038B5174B0546D3F8A2
:1041E00028310C4603F00703013B052B20D8DFE8FC
:1041F00003F003131B0F0B171FF0ECFC052305B195
:10420000286004B1236038BD1FF0E4FC0623F6E704
:104210001FF02AFD0723F2E71FF01CFD0323EEE742
:104220001FF018FD0423EAE71FF010FD0223E6E764
:1042300000231846E3E700BF00800050002337B595
:104240000193164B0546D3F820320C4603F00703C2
:10425000042B21D8DFE803F0030B11161B00012308
:104260000DB1019A2A6004B1236003B030BD002172
:1042700001A8FFF7B1FF1223F2E71FF0F5FC0723B7
:104280000190EDE722F0C2F80A230190E8E71FF061
:1042900033FD09230190E3E70023E1E700800050AC
:1042A00038B5104B0546D3F880300C4603F00303B5
:1042B000022B0BD0032B0DD0012B0FD11FF090FC44
:1042C0000E2305B1286004B1236038BD1FF0CCFC7B
:1042D0000723F6E71FF07EFC0623F2E700231846CB
:1042E000EFE700BF0080005038B5104B0546D3F80B
:1042F00000310C4603F00303022B0BD0032B0DD02F
:10430000012B0FD11FF0A6FC032305B1286004B1D7
:10431000236038BD1FF0F0FC0923F6E71FF0A0FC76
:104320000823F2E701230020EFE700BF00800050E0
:1043300038B5184B0546D3F820010C4600F00700AD
:10434000062823D8DFE800F0040A0E16121A1E0011
:10435000012305B1286004B1236038BD1FF03AFC89
:104360000523F6E71FF076FC0323F2E71FF07CFC41
:104370000723EEE71FF06AFC0223EAE71FF02AFC9E
:104380000623E6E71FF066FC0423E2E70023184655
:10439000DFE700BF0080005038B5104B0546D3F86A
:1043A00040310C4603F00303022B0BD0032B0DD03E
:1043B000012B0FD122F02AF80A2305B1286004B19D
:1043C000236038BD1FF098FC0923F6E722F021F89E
:1043D0000C23F2E701230020EFE700BF008000502C
:1043E000002337B50193164B0546D3F860320C46CF
:1043F00003F00703013B032B1FD8DFE803F0020E95
:104400001914002101A8FFF793FF10230DB1019AA1
:104410002A6004B1236003B030BD002101A8FFF77A
:10442000BBFF1123F2E71FF01FFC07230190EDE70C
:104430001FF00CFC02230190E8E70023E6E700BF31
:1044400000800050002337B50193164B0546D3F882
:1044500094320C4603F00703013B032B1FD8DFE81F
:1044600003F0020E1914002101A8FFF761FF1023C9
:104470000DB1019A2A6004B1236003B030BD002160
:1044800001A8FFF789FF1123F2E71FF0EDFB0723D7
:104490000190EDE71FF0DAFB02230190E8E700232B
:1044A000E6E700BF0080005038B5104B0546D3F852
:1044B00060310C4603F00303022B0BD0032B0DD00D
:1044C000012B0FD121F0A2FF0A2305B1286004B10E
:1044D000236038BD1FF010FC0923F6E721F099FF97
:1044E0000C23F2E701230020EFE700BF008000501B
:1044F0002E4B98424AD022D82D4B984240D014D807
:104500002C4B984239D00AD82B4B984232D02B4BA7
:1045100098422FD02A4B98422CD000207047294B2C
:104520009842FAD1284B186F7047284B98422AD0EE
:10453000274B9842F1D1244BD3F880007047254B8C
:1045400098422BD009D8244B984223D0234B984231
:10455000E3D11D4BD3F88C007047214B984221D0FA
:1045600003F5740303F510539842D6D1164BD3F8D4
:1045700098007047144B986D7047134B586E7047F6
:10458000114B586F7047104B986F70470E4BD3F814
:10459000840070470C4BD3F8880070470A4BD3F85F
:1045A00090007047084BD3F8940070470048E8012A
:1045B0000024F400C0CF6A0080841E0000093D0082
:1045C00040420F00405DC6000080E00FC0EA2101BC
:1045D00080BA8C01007E560380D54302006CDC0259
:1045E0000090D00373B50D460021114B0191D3F813
:1045F0008041064604F00304022C13D0032C0CD097
:10460000012C13D101A8FFF793FE10240EB1019BDA
:10461000336005B12C6002B070BD1FF025FB07248C
:104620000190F3E71FF012FB0190EFE70C46EDE776
:104630000080005038B5104B0546D3F840320C4688
:1046400003F00303022B0BD0032B0DD0012B0FD152
:1046500021F0DCFE0A2305B1286004B1236038BDD7
:104660001FF04AFB0923F6E721F0D3FE0C23F2E703
:1046700001230020EFE700BF0080005038B5144B45
:104680000546D3F800020C4600F0070004281BD8AA
:10469000DFE800F003090D111500012305B12860C2
:1046A00004B1236038BD21F0B1FE0A23F6E71FF004
:1046B00023FB0923F2E721F0ACFE0C23EEE71FF009
:1046C000AFFA0F23800AE9E700231846E6E700BFA8
:1046D0000080005038B5144B0546D3F808020C464C
:1046E00000F0070004281BD8DFE800F003090D11D3
:1046F0001500012305B1286004B1236038BD21F005
:1047000085FE0A23F6E71FF0F7FA0923F2E721F006
:1047100080FE0C23EEE71FF083FA0F23800AE9E7FF
:1047200000231846E6E700BF00800050B0F5207F68
:104730001FD009D8B0F5007F15D003D868B1B0F507
:10474000C07F0AD000200CE0B0F5607FFAD10B4B9F
:10475000D3F88000C0F3011003E0084B186FC0F3DA
:10476000033001307047054BD3F89000C0F304606C
:10477000F7E7024B186FC0F38020F2E7008000508B
:1047800002464FF48030104B10B598660020FFF7BA
:10479000CDFF504341F671320C4BDC69DA635A6845
:1047A00004F4803422F4401259B90949884294BF74
:1047B00000200120000502435A600CB10022DA6398
:1047C00010BD0449F2E700BF009000500000035004
:1047D000005A6202002D3101430905D0012B0CD093
:1047E000022B084B18BF002300F01F0039B103F55E
:1047F0008053012282401A607047034BF4E703F5AF
:104800000053F6E768800050648000501FB5002117
:10481000B0F5807F0446CDE9001100F0D2803AD88F
:104820005E2833D85E2833D8DFE800F045323232D4
:104830003232323232323232323232323232323258
:1048400032323232323232323232323245AC45AC2E
:10485000BCBCBCBCBCACC64E6BDC4EACACAC3232EF
:10486000323232323232ACACAC7EE6AC3232323240
:10487000323232323232323232BC454545E14E4E6E
:10488000EB8D63C132323232329E4500802870D0C7
:10489000009804B010BDB0F5D06F00F0A38035D8FB
:1048A000B0F5607F79D01AD8B0F5007F65D005D813
:1048B000B0F5C07FECD11FF0B3F95CE0B0F5207F1C
:1048C00060D0B0F5407FE3D11FF0AAF902464FF463
:1048D0002070FFF72BFFB2FBF0F252085BE0B0F55F
:1048E000B06F69D00AD8B0F5806F5BD0B0F5A06F1B
:1048F000CED100216846FFF7A1FCC9E7B0F5C06F33
:10490000C6D100216846FFF747FDC1E7B0F5106F3B
:104910006DD00ED8B0F5086F78D0B9D8B0F5E06F8B
:104920006AD0B0F5F06FB3D100216846FFF7BCFD47
:10493000AEE7B0F5406F3AD013D8B0F5206F60D035
:10494000B0F5286FA4D10021324B0391D3F8703217
:1049500003F00303012B02D103A8FFF71DFD039B06
:1049600039E0B0F5486F93D100216846FFF76AFD42
:104970008EE71FF035F900908AE71FF031F9024603
:10498000204604E01FF04CF902464FF42070FFF778
:10499000CDFEB2FBF0F200927AE701A8FFF780FCAF
:1049A000019AEDE700216846FFF7C2FC70E700219D
:1049B0006846FFF711FC6BE700216846FFF712FE1F
:1049C00066E74FF0E02302911B695B0705D51FF0F6
:1049D00027F90290029B00935AE703A902A8FFF768
:1049E000DBFCF7E700216846FFF748FE50E70021AF
:1049F0006846FFF76FFE4BE700216846FFF71AFE97
:104A000046E700216846FFF7EBFC41E76846FFF701
:104A10006BFC3DE70080005008B58020FFF7F6FEF4
:104A2000034B98429EBF4FF48032024B1A6708BD79
:104A3000005A620200A000501FB503460020B3F5E3
:104A4000807F019000F0C58065D85D2B56D84C2B37
:104A500007D82D2B48D8232B2CD8019805B05DF80A
:104A600004FB4D3B102BF8D801A252F823F000BFF5
:104A7000C94B01085B4A01085B4A01085B4A01080F
:104A8000774B01085B4A01085B4A0108234C010887
:104A9000954B01083B4B0108194C01085B4A010882
:104AA0005B4A01085B4A01085B4A01085B4A01084E
:104AB0002D4C0108243B092BCFD801A252F823F03A
:104AC000C94B0108C94B0108C94B0108C94B010872
:104AD000C94B01085B4A0108BF4B01085B4A01084A
:104AE000574B0108FF4B01083D2B00F083803E2B04
:104AF000B3D1002001A9FFF79DFDAEE7802BACD11B
:104B0000504B1B6F03F00703013B032BA5D8DFE8D5
:104B100003F0544D5052B3F5F06F6BD020D8B3F57D
:104B2000B06F4CD00ED8B3F5607F71D095D3B3F58C
:104B3000806F49D0B3F5A06F8FD1002001A9FFF796
:104B40007DFB8AE7B3F5D06F59D0B3F5E06FD0D0D5
:104B5000B3F5C06F81D1002001A9FFF71DFC7CE7F0
:104B6000B3F5206F5DD00BD8B3F5086F4CD0B3F51B
:104B7000106F7FF472AF002001A9FFF7ABFD6CE767
:104B8000B3F5406F48D0B3F5486F4FD0B3F5286FF9
:104B90007FF463AF2B4BD3F8703203F00303012B88
:104BA00049D0022B0CBF1523002300E005230193FD
:104BB00053E70323FBE70823F9E70223F7E7002085
:104BC00001A9FFF70FFD48E7002001A9FFF7B0FB9F
:104BD00043E74FF0E02302901B695B0705D51FF008
:104BE0001FF80D230393039BE1E703A902A8FFF736
:104BF000D3FBF8E7002001A9FFF756FC2DE70020C2
:104C000001A9FFF73BFD28E701A9FFF76DFB24E7AA
:104C100001A9FFF745FB20E7002001A9FFF7DCFA17
:104C20001BE7002001A9FFF7DBFB16E7002001A925
:104C3000FFF708FC11E7002103A8FFF7ADFB1123E4
:104C4000B5E700BF008000504FF48032074B0849A1
:104C5000586E03F580535A664B6A23F001034B628A
:104C6000C3035CBF034B5A66704700BF008000500F
:104C700000C0075000A0005008B5FFF7DDFE09286E
:104C800011D00A38012802D94FF6FF7008BD4FF441
:104C90008002064B5A6603F5D8335B6ADB07F3D50F
:104CA0004FF4FA70F2E7024B1888EFE700900050DB
:104CB000B233002008B5FFF7BFFE03280ABF024B3E
:104CC0004FF6FF70188808BDB033002038B5044691
:104CD0008020FFF7B1FE032800F083804FF480129C
:104CE000524B4FF0A0615A6645F60E02504BC3F886
:104CF0008020504A91624FF4803102F580529162D7
:104D00009A6DD203FCD4996D11F08041FBD1D4E9A6
:104D10000002120542EA0062E07B0243207B42EA85
:104D20000042607B42EA0032A07B42EA80121A61B4
:104D30009869D4E90452120642EA856200F0004004
:104D40000243A07EE57E0243207E42EA0042607E6E
:104D500042EA00229A611A6AE06922F00F0242EAEE
:104D60008502354D00283DD11A6294F82420996AB5
:104D700094F82000D200294042EA40120A4394F8F5
:104D8000211042EA011242F480329A622B49284AE9
:104D9000936D31EA0303FBD14FF0807125488162A6
:104DA0001369A56823F4700343EA055313614FF0B8
:104DB0000043836194F822300BB9214B996294F837
:104DC00023303BB94FF480321D4B9A62184A936DE1
:104DD0005B00FCD494F825301BB1154B194AC3F87D
:104DE000802038BD024342F0080202281A6208D12E
:104DF00019614FF40852996113484FF47F4116F03E
:104E000006F90B4994F822308A6A94F820001B06B0
:104E10002A4043EA4013134394F8242043EAC20390
:104E200094F8232043EA02438B62D3E700900050BA
:104E30000040005A0050005AC7FFFEFE0300010068
:104E40000060005AF1A7FFFF3440005A014B93F96C
:104E500000007047CB330020F0B5D0E901434FF498
:104E600000061A4A4178057856664FF4D156022753
:104E700002F5B8325662164E4F2977604FF001079F
:104E800028BF4F2106F5805677601669F603FCD4DB
:104E900041EA052151611B01417B43EA04230B4395
:104EA000017B43EA41039360C37B817B1B0143EA9F
:104EB0004113417C0B43017C43EA41035360837CF3
:104EC00013B16FF4D1535362F0BD00BF0090005096
:104ED00000100250014B1880704700BFB233002011
:104EE000014B1880704700BFB03300204FF48002A0
:104EF00008B5184B5A660223174A5360936813F497
:104F00008033FBD1012822D11EF0A4FE134B98421E
:104F100015D003F5122303F5F863984213D0104B14
:104F200000EB8002400AB3FBF0F3520A0A49CA625E
:104F30000B6301234B620022074B5A6008BD45F604
:104F40007A13084AF2E745F61A03074AEEE7536276
:104F5000F1E700BF009000500040025000F049020D
:104F600064666666D8B80500BBCF0500B0F5207F43
:104F700010B50C465DD008D8B0F5007F4ED003D8F0
:104F8000C0B1B0F5C07F15D010BDB0F5607FFBD1CA
:104F90002C4B4C1ED3F8FC202B4912F0807F4FEA9B
:104FA000041427D1D1F8803023F030032343C1F813
:104FB0008030E9E716F03AF816F046F84FF4803101
:104FC000224B214A1967136F013C23F4704343EAD3
:104FD000043313671EF024FE0446FFF7F1F8C0F116
:104FE0000201204616F02AF800F04AF8BDE8104009
:104FF000FFF712BDD3F8FC2022F08072C3F8FC202A
:10500000D1F8802022F030022243C1F88020D3F86A
:10501000FC2042F08072C3F8FC20B5E70A4A4C1E1F
:10502000D2F8903023F0F85343EA0463C2F890308A
:10503000AAE7054A4C1E136F23F4806343EA8423D6
:105040001367A1E700ED00E00080005000900050E1
:1050500008B50121022000F073F94FF42070FFF72A
:1050600065FB054B187015F0E1FF15F0EDFF4FF4EF
:105070008032024B1A6708BD8D2D00200090005031
:1050800008B54FF4C070FFF7C1FBBDE80840044904
:10509000884294BF012102214FF42070FFF766BFC0
:1050A00080F0FA0238B504461EF0BAFD0546FFF757
:1050B00087F8C0F10201284615F0C0FF0121002049
:1050C00000F07EF92CB1FFF7DBFFBDE83840FFF7B9
:1050D000A3BC034B4FF420701978FFF747FFF4E7A8
:1050E0008D2D00204FF4C02270B50546FFF700FA61
:1050F000314B04465A6603F598335A68012A04D1A5
:105100002E494A605A689207FCD48020FFF794FC2D
:10511000052807D115F08AFF15F096FF4FF480326D
:10512000254B1A67264B24F040749D4230D0254B06
:105130009D4230D01EF04EFD8542064603D9012126
:10514000284600F03DF9204BDA6812F0060FFBD13B
:1051500099689C609A68624012F4F81F1ED1284634
:10516000FEF78EF88020FFF767FC05280DD11EF0B2
:1051700057FD0446FFF724F8C0F10201204615F060
:105180005DFFFFF77DFFFFF747FCAE420CD270BD1D
:1051900044F00074CEE744F08074CBE7802099603F
:1051A000FFF74AFC052805D0BDE87040012100202A
:1051B00000F006B93546DAE70090005000E00150F3
:1051C00040420F0080841E0000000150304B314AE5
:1051D000984251D020D8A3F5B703A3F5586398425D
:1051E00046D00DD82C4B984231D02C4B984239D018
:1051F0002B4B4FF4002198421DD00023516622E032
:10520000284B4FF400219842F7D1274BD3F8BC30FC
:10521000516623F0407316E0244B984230D0244B63
:10522000984231D0234B4FF400219842E5D11E4BD8
:10523000D3F8C830ECE71C4BD3F8A030516623F00C
:10524000407343F000734FF0B442936070474FF4E3
:105250000021154BD3F8A030516623F0407343F082
:105260008073F0E7104BD3F8A0304FF40021CFE764
:105270000D4BD3F8B830F8E70B4BD3F8C030F4E758
:10528000094BD3F8CC30F0E7074BD3F8D030ECE73C
:10529000C0EA21010090005080841E0000093D00FA
:1052A00040420F000024F4000080E00F0048E801B5
:1052B000005A620280BA8C01024A536B0342FCD14D
:1052C000704700BF00400950044A4178536F23F4EF
:1052D000407343EA01235367704700BF004000500A
:1052E0000E4A10B51369044643F0040313611FF01E
:1052F0007DFB15F0AEFE0A4B5B6E5B0142BF094BB6
:10530000094AC3F8202430BF15F0A4FE02F006FCC1
:105310001CB9BDE810401EF083BC10BD00ED00E0DC
:105320000080005000E003500000FF0F034A0179A5
:10533000D36E23F030030B43D36670470040005018
:10534000F8B504461C4BD3F88420D106FBD4D3F81F
:105350008430C3F381139C422CD01EF041FC012CFD
:10536000064602D1214615F069FE21F05AF84FF0A9
:105370000072124B07465A66204615F06EFE4FF437
:1053800080630D4D621E93402B676B6E9A0103D4B0
:10539000D5F884309B060AD5384621F03DF8022C1A
:1053A00008D13046BDE8F840002115F047BED5F8D9
:1053B0008430EAE7F8BD00BF0040005000600050B4
:1053C00010B50C4608B91EF00BFC074B21461B78A4
:1053D0003BB1064B984204D80120BDE81040FFF7CE
:1053E000AFBF0220F9E700BF8E2D0020005A6202F5
:1053F0000278034B012100201A70FFF7E1BF00BFC4
:105400008E2D00204FF0004238B5244B244C5A66B4
:105410004AF6CD33656C014605F00105236428BBCF
:105420000120FFF749FF6368DB0715D51D4B586066
:1054300008461D4B226BD2070CD4984208D1072492
:1054400015B1174B194A1A641CF0E3FD204638BD0C
:105450000130EFE79842F2D00024F1E70132236BEC
:1054600013F0080305D08A42F8D1E8E700220E497C
:10547000F5E78A42E3D020210A4A91620121A2F590
:10548000805251600649084A886A800603D49342D4
:10549000D5D00133F8E79342DDE700BF009000501C
:1054A000004009500060095040420F003254FFFF95
:1054B0004FF0004238B5164B01465A664AF6CD33D6
:1054C000144C154A656C236443780B205B0043F051
:1054D0000103D363FFF7F0FE63688A7823F4F8735F
:1054E00043EA02136360CA784B7943EA0223A3605C
:1054F0000A798B7943EA022323610878FFF782FF58
:10550000EB0744BF054B23641CF083FD012038BD2D
:105510000090005000400950004000503254FFFFFE
:105520004FF00042124B70B55D6E03F580535A6622
:105530004AF6CD3304460F4980204E6C0B64FFF7CA
:10554000BBFE0B6A23F00F030F2C94BF234343F0E1
:105550000F030B62F30744BF074B0B64002DA2BF80
:105560004FF00042054B5A661CF053FD70BD00BF62
:1055700000800050004009503254FFFF00A000504E
:105580004FF00042104B70B55D6E03F580535A66C4
:105590004AF6CD3304460D4980204E6C0B64FFF76C
:1055A0008BFE0B6A23F4F85343EA04230B62F307E0
:1055B00044BF074B0B64002DA2BF4FF00042054BC8
:1055C0005A661CF026FD70BD008000500040095056
:1055D0003254FFFF00A0005010B515F043FD042326
:1055E00000F5805100F500520B6113610B611361EE
:1055F0000B6113610B611361202341F2020103610E
:105600000023C360836041614FF4A02183618365FF
:1056100041620549C36103628362C36243630365F8
:10562000D164036310BD00BFFF3F0D0370B5054695
:105630001446084641B9354B9D4218D0344B9D4223
:1056400008BF5720FFF7E2F8AB6813F0010F6B6853
:1056500030D0B0FBF4F4D80704F1FF344FEA04640F
:1056600007D42B6923F07F4323432B6170BD562061
:10567000E8E72821284615F0F1FCAB6C990715D115
:10568000AB6CDA0714D4AB6C13F0020F14BF062610
:105690000026284615F0E6FC2B69314623F07F43AF
:1056A00023432B61BDE8704015F0F6BC0526F0E7FA
:1056B0000926EEE7AB6DDB07AB6848BF640003F07B
:1056C000E003402B1BD004D8DBB1202BCED1082324
:1056D00004E0602B17D0802BC8D101236343410124
:1056E000B1FBF3F20B4B203A284603EAC202012138
:1056F00015F0B4FC2A63BDE8704015F0AFBC06237A
:10570000ECE71023EAE70423E8E700BF0000015BB1
:1057100000000A50F8FF7F002DE9F04198464368E9
:1057200004460E4617461BB140F6FF7115F096FC75
:105730002046FFF751FFF189737B62690B43318A81
:1057400022F44C5222F00F020B4313436361A26810
:1057500096F818C0337B22F0804222F0E2024CEA35
:105760000303134372691343B268A3601AB9A368B1
:1057700043F00043A360F06904F58053002878D01B
:10578000857A017A6D04D4F808E045EA81556E49BE
:105790000EEA01010D43818801F4C0410D434178B7
:1057A00045EA8105417B45EAC105817B45EA011552
:1057B000817845EA8125A560D4F80CE0D0E904158C
:1057C0002943624D0EEA05052943857941EA852181
:1057D000C57941EA4521E16001785D4D012914D187
:1057E000E16841F00401E160AC4200F09280594967
:1057F0008C420CBF01214FF0FF31490101F1A04162
:1058000042F2944501F5703114E003297BD1E1683F
:1058100041F00401E160AC4279D04E498C420CBFAA
:1058200001214FF0FF3141F29445490101F1A041BE
:1058300001F570314FF0020E41F805E0417A9962AE
:1058400019B1E16841F40061E160C17A59B1E168E0
:1058500041F40041E1603E498C425CD1017B3E4D08
:1058600001F00F016967616AC07B21F00301014308
:1058700061622FB197F82010002956D001211962DA
:10588000B8F1000F2DD0BCF1000F02D04FF4004151
:1058900099652F49B8F822508C4298F8211051D0C0
:1058A0002C48844213D10120112934BF4FF0010C40
:1058B0004FF0020C294FB5F5006F07F800C094BFF8
:1058C0004FF0010C4FF0020C254F07F800C0A06DFF
:1058D000294320F4F95020F01E000143A165012165
:1058E0009965012159601AB120467168FFF79EFE43
:1058F0002046317815F0D0FBA36CDB4313F4405FF6
:10590000FAD1BDE8F0810239012984D96CE7002180
:1059100089E7002171E70F498C4201BF017B0E4DE1
:1059200001F00F01C5F880109DE7E06997F822109B
:1059300097F8215020F009002943014341F001016B
:10594000D9619DE70020AFE7E39BBDFFFFF9F0873A
:105950000000015B00000A5000900350912D0020D0
:105960008F2D00202B4B2DE9F0419842064612D096
:10597000294886420CBF57200020FEF747FFB16838
:1059800011F0010109D03169090E0131B0FBF1F1CB
:105990000846BDE8F0815620EFE7346BB3681F4A34
:1059A00003F0E003402B02EA040210D007D84BB307
:1059B000202B2BD0B36DDB0748BF4908E8E7602BED
:1059C00026D0802BF6D14FF480750C461CE0802544
:1059D0000C46032302F5807803FB08F800234246B7
:1059E000194612F03BFF02FB04F100FB05F705FB33
:1059F0000311A2FB050500234246294412F02EFFA5
:105A00003918D7E710251C460123E3E71D46DCE7DC
:105A10004025DAE70000015B00000A50F8FF7F0034
:105A20002DE9F04105460F461E4690464AB1012336
:105A30003022194C8B4002FB004436B304F58254EB
:105A400023600F21072F05EB450388BFA7F108044A
:105A50004FEA0313114895BFBC00A40004330C3374
:105A600008FA04F2A140184415F043FBB8F1000F06
:105A700009D101233021084ABB4001FB05223EB178
:105A800002F582521360BDE8F08104F50154D7E7B6
:105A900002F50152F6E700BF00C0035030C00350CA
:105AA00010B5152001F020F80024FF22064B2146F6
:105AB0005C6520209A625C60FEF78EFE2146BDE8A0
:105AC00010402120FEF788BE00000450044A054B18
:105AD000002908BF1346012282401A60704700BFA8
:105AE000401004504020045010B5012104462020ED
:105AF000FEF772FE01212120FEF76EFE0122114BFE
:105B000015205A60227812069A606178A27842EADB
:105B100001429A61FF229A6200229A631A644FF04E
:105B200000425A654FF0FF3203F500531A6501F049
:105B300033F81520E17815F028FFBDE81040152056
:105B400000F0E4BF00000450F8B50125C3B2D1F85D
:105B500000C08F7A0E7B0C469D40CB7A1C491B05FA
:105B60000D65810001F1A04101F58821C1F804C053
:105B70004FF0300C0CFB00F0617B00F1A04043EAD9
:105B8000074300F5802043EA465322F003020166F2
:105B9000C365026720F04EFC0E4B227A5D6502B1B0
:105BA0001D64627A02B19D632279A37943EA0243BC
:105BB000074A93616179E37943EA014305498B61BF
:105BC000054B55639D64BDE8F84020F02EBC00BF36
:105BD00000200450001004500000045010B50124AF
:105BE000C0B2844020F026FC044B5A6D22EA040225
:105BF0005A659C62BDE8104020F017BC00000450BC
:105C000010B50124C0B2844020F014FC074BDA6ABE
:105C1000224208D15B6B9C430CBF0124002420F07E
:105C200004FC204610BD0024F9E700BF000004502A
:105C300070B5054620F0FEFB3022084B5E6B02FB80
:105C400005335C6E20F0F1FB0123EDB2AB40334233
:105C50000ABFC4F30A100020013070BD00000450D8
:105C6000013831289ABF024B185C0020704700BFF2
:105C7000B882030838B5C2F30625044602F00702CD
:105C800041B942EA052242F440220634074B43F868
:105C9000242038BD1146284615F03AFA0246284617
:105CA000FFF7DEFF163442EA0022EFE700800350E0
:105CB0004FF48032064B5A6603F5E6239B69C3F323
:105CC0008512827003F03F021B0B42700370704715
:105CD00000900050014B986CD96C70470080E00F29
:105CE0000122437801789A4030235943014B5A509E
:105CF000704700BF40E00350034BD3F82424D3F88F
:105D000020041040704700BF00C00350064BDA6EFD
:105D100002F03002202A06D0DA6E22F0300208B1FA
:105D200042F01002DA667047004000502DE9F84357
:105D30001F4B0546D3F810334B1E0E2B0E4617464D
:105D4000047890F8018026D951B34FF00009284615
:105D50001FB31EF093F80F21B8F1070F04EB4404B2
:105D600088BFA8F108084FEA0414124895BF4FEA0B
:105D700088084FEA880804340C3409FA08F201FA5A
:105D800008F1204415F0E6F986B9284657B1BDE878
:105D9000F8431EF073B88946D9E7FFF7A1FFDAE7A9
:105DA0008946D8E7BDE8F843FFF79ABFBDE8F88316
:105DB00000C0035030C003502DE9F0412B4B174673
:105DC000D3F810234A1C06460C46407804D1D3F879
:105DD000241415F0CEF90446002C2FDB072C4FF0CD
:105DE000030532782DDC4FEA840805FA08F52946C8
:105DF0001F4802FA08F215F0ADF9294672781D48DD
:105E000002F0030202FA08F215F0A4F9012317F0D8
:105E1000050F194A18BF194903FA04F30CBFC2F859
:105E20001034C1F8103417F0060F18BF134AC2F827
:105E300014340123104AA340C2F820342046BDE8A0
:105E4000F081A4F108084FEA880805FA08F5294608
:105E50000B4802FA08F215F07DF97278294602F033
:105E60000302084802FA08F2CEE700BF00C0035060
:105E700000C4035008C4035000E0035000D0035096
:105E800004C403500CC4035038B505460C4C014003
:105E9000D4F8303423EA0003C4F83034D4F8303472
:105EA0001943C4F83014D4F82C340343C4F82C3408
:105EB000012004F50054FFF729FFC4F8205438BD31
:105EC00000C00350124B70B5D3F81033064615F0DE
:105ED0006AF90446481C154603D1621C05D12046C8
:105EE00070BD631CFBD08C420ED13046032185F07F
:105EF0000102FFF71BFF012004F1100305FA03F173
:105F00009840FFF7C1FFEAE74FF0FF34E7E700BF33
:105F100000C00350054B9A689107FCD45A68920759
:105F2000F9D4DA69002AF6D1704700BF00800A5020
:105F3000034908B54B681DF0ADFF02230B6108BD96
:105F400000800A5008B5FFF7E5FF0122024B03F578
:105F500080514A601A6108BD00800A5008B5044BA0
:105F60005868012803D1FFF7E3FF024B586008BDD2
:105F700000800A5000A00A5038B5074DFFF7CAFF4D
:105F80006B680446012B03D1FFF7E8FFFFF7C2FF60
:105F90002378EB6038BD00BF00800A5010B51DF0BB
:105FA00083FFB8B94A680B7812B1127843EAC2038A
:105FB0004A7843EA42038A6812B1127843EA8213AC
:105FC000CA7843EA82030A6912B1127843EA42238B
:105FD000014A936410BD00BF00800A504FF4803224
:105FE000084B5A6603F5E6239B691A0B027003F00F
:105FF0003F0242704FF6FF72C3F3851342808380E5
:10600000704700BF00900050014B986CD96C7047EE
:106010000080E00F70B504461CF0C5F8064630B9A4
:106020000FCC044D0FC594E8030085E8030030460B
:1060300070BD00BFB40F002047F6FF739A42F0B561
:106040006FD002296FD8394B5B5C012B6BD8384D70
:10605000DF0005EBC30415F83330A178012B13D111
:106060000025E078401AA84202D80844C0B2F0BD2A
:10607000431B6668A0EB530336F913609642D4BF06
:106080001D4603F1FF30EEE760680028EFD0B0F95D
:106090000040944204DBB0F902409442B8BF144679
:1060A00083883D44FF2B19BFC8224FF0280CB0F95C
:1060B0000620B0F908C0A2EB04030CBF012600269D
:1060C00093FBFCF333446E781BB29E4201DD002B40
:1060D00001DA731E1BB24FF47A7C01339BB2071DA9
:1060E0005D1E2DB24FEAC50E00EBC505EA88AD680E
:1060F0009E4214FB025222EAE27202F15C02B2FBFF
:10610000FCF204DD37F8335001339542E8D200EB5E
:106110000E039888904228BF1046884238BF084630
:10612000A4E7FF20A3E70020A1E700BFEA8203085D
:10613000B40F00200229F0B555D82C4B585C01282B
:1061400051D82B4C04EBC00114F830004B680128E7
:106150000FD1C8788C78904294BFC4EB0001C4EB97
:106160000201001BCAB28242C8BF002233F91200EA
:10617000F0BD002B37D08878904202D3B3F90200EB
:10618000F6E7CC78B3F900009442F1D94C789988BD
:10619000013CA1F1FF06714203F10405E4B2714133
:1061A00003F10C07CEB2B44216D805EBC1014FF48F
:1061B0007A756A43B1F902404968521A04EBD47106
:1061C00002EB610292FBF4F29042D1DBB3F90200E0
:1061D0009042CDDC10B2CBE737F831C04E1C94456D
:1061E000E3D33146DEE70348C2E700BFEA82030893
:1061F000B40F00200080FFFF08B50448FFF70AFF36
:10620000BDE8084001201BF0D2BF00BFF0820308A8
:1062100000487047B43300207FB50222084B09497B
:10622000CDE901234FF00073CDE90313072301A942
:106230004FF0FF3005931CF00FF807B05DF804FB3A
:10624000006A180000020600274B2DE9F0411B6888
:106250001EF02EFF0128074620D920F0B1FB051EB5
:1062600003DA01242046BDE8F081204B1B78002B87
:1062700038D14FF050081E4C04EB0800A465C4F858
:106280005C8020F0F4FC206680B90124012FE9D95C
:10629000284620F0ABFB0028E4DAE2E7134B1B783A
:1062A00003F0FF05002BE4D00024DBE70024114EAF
:1062B000214606F110033246012034607460B36059
:1062C000C6F80C8020F083FD30660028DDD0032165
:1062D000412015F05AFB412000F018FC0122034B2D
:1062E0001A70D3E70024D3E7BC310020932D00209F
:1062F00030100020CC0F002008B54FF098435B6CA5
:10630000D90208D51EF0D4FE0238012803D8094B63
:10631000186E20F0DBFD4FF098435A6CD202FCD58A
:106320005B6D054A03F4702313604120BDE808400B
:1063300000F032BCCC0F0020BC3100202DE9FF471B
:106340004FF000080E4617460446CDF8008000289E
:1063500059D022B90025284604B0BDE8F0870029AD
:1063600051D032F0030902F0030A1FD04FF0E0636E
:10637000C0E9003801230191C0F808800293C0F8F9
:10638000208049F0005301A9039320F0C4F8494646
:10639000204620F09AF820461DF0FAFD054628B167
:1063A0004A46414630461CF009FCD4E7BAF1000FDA
:1063B000D0D04FF000084FF0E063C4E9003801236B
:1063C000CDF804D00293114B204601A9C4F80880EF
:1063D000C4F82080039320F09EF80421204620F08A
:1063E00074F820461DF0D4FD054608B13A46D8E7BA
:1063F000009A4E44EB00013522FA03F3AA4506F851
:10640000013BF7D1A6E72125A5E700BF0400002046
:1064100090B189B101234B60C368013B012B08D8BF
:106420008269064B1AB10A6000208B607047044AEB
:10643000F9E74FF00053F7E72120704708000020EC
:10644000E094030838B5134DFFF7FEFE124B134AD4
:106450001349144802F084FD2B7803F0FF04BBB904
:106460001EF026FE012802D920F0AAFA04462B7855
:106470002BB90D4B0D481B68984701232B701EF05C
:1064800017FE012804D92046BDE8384020F0AEBAF6
:1064900038BD00BF942D002089B602086BB60208F3
:1064A000A3B60208ADB60208E03100205420002057
:1064B00006289ABF014B185C00207047E894030837
:1064C000F8B5184F3B7803F0FF0413B100242046C1
:1064D000F8BD1EF0EDFD012806461AD920F070FA2D
:1064E000051E1CDB3B786BB950230F4CE018A465EC
:1064F000E36520F0BCFB2066012408B13C70002459
:10650000012EE4D9284620F071FA0028B8BF0224F1
:10651000DDE73B7803F0FF05002BD7D1E4E70D243E
:10652000D5E700BF952D00209810002070B50446D7
:106530000D461FF07FFF0C2C064616D80C2C18D8E1
:10654000DFE804F01B1B171B1B2A171B2E17311724
:1065500034000123194AA34013421DD1062C2AD02E
:10656000DB0706D54FF4F06022E00D3CE4B2132CBB
:10657000EFD9002321242B8009E08020FEF79AFB2D
:106580004FF6FF7398420CBF0E240024288030463B
:106590001FF04BFF204670BD00230F242B80F6E731
:1065A0004FF48060EAE74FF44060E7E74FF4C060E3
:1065B000FEF762FBE4E74FF4E060F9E71C450D00ED
:1065C00030B58BB06C46864D864820F0CCF80FCDA8
:1065D0000FC42B68844A2360FF238DF80130D2F862
:1065E0004C3113F4802340F0EF80D2F850218DF825
:1065F00001309DF801306C46FF2B08BF252368460B
:106600007A4D8DF80130FEF727FC3220FEF762FC50
:106610000FCD0FC40FCD0FC495E8030084E803002D
:10662000714BD3F84C21120340F1B280A3F5FE4325
:106630001C88B4F5807F28BF64248DF81940FEF7CC
:1066400005FC044484F3080469488DF81840FCF7FD
:106650001DFE6846FEF73AFB3220FEF741FC654816
:10666000FEF740FD6448FEF7B1FD644C644820F03D
:106670007AF80020FEF73AFCFEF7EAFC236F0020D0
:1066800023F0070343F003032367FEF70BFD236F9B
:106690005C4923F4744323675B4BD3F8FC2012F06E
:1066A000807279D1D4F8803023F0030343F00103E2
:1066B000C4F88030C1F88020504CD4F8203123F049
:1066C000070343F00203C4F82031D4F8283123F043
:1066D000070343F00203C4F82831D4F8803123F0D3
:1066E000030343F00103C4F88031D4F8403123F0B0
:1066F000030343F00203C4F84031D4F8603123F0BF
:10670000030343F00203C4F86031D4F8403223F0AD
:10671000030343F00203C4F84032D4F8003223F0FC
:10672000070343F00203C4F80032D4F8083223F020
:10673000070343F00203C4F80832D4F8703223F0A0
:10674000030343F00103C4F87032D4F8203223F07D
:10675000070343F00103C4F82032FEF775FA4FF047
:10676000E0220020136943F004031361D4F860327F
:1067700023F0070343F00103C4F86032D4F89432E5
:1067800023F0070343F00103C4F894320BB030BD8B
:10679000D3F85041E4B250E7D3F8FC2022F08072E5
:1067A000C3F8FC20D4F8802022F0030242F001025A
:1067B000C4F880200022C1F88020D3F8FC2042F0E9
:1067C0008072C3F8FC2077E74FF07E6393F89C203B
:1067D00093F99C30002BFFF60CAF8DF8012008E7F1
:1067E0000C950308509503080080E00F20950308DE
:1067F000C017530200B4C404C0EA21010080005055
:10680000589503080090005000ED00E007B5094BD3
:1068100018689A889B7900906846ADF804208DF836
:106820000630FEF745FE0C20FEF77AFE002003B08E
:106830005DF804FB4895030870B501F0C7F90446FC
:10684000E8B901F04DFA1EF087FA4FF4167343438E
:106850000C4A03F5742303F23F23B3FBF2F30A4916
:106860000A480B600A230268094D0E68013B45F88F
:10687000046B0E6813F0FF033244F6D10260204629
:1068800070BD00BF40420F003011002000110020F9
:1068900004110020012208B5034B1A7020F013F8F0
:1068A000024B186008BD00BF962D0020FC10002090
:1068B00010B51EF051FA04461FF0ABFD844207D913
:1068C00020F00DF820B10122024B1860024B1A7023
:1068D00010BD00BFFC100020962D0020F8B51F4C05
:1068E0002378E3B11FF0EFFF1D4B1E4D1B68C01A4C
:1068F00028602B68A3B12B682B601EF02DFA4FF493
:1069000016725043184A00F5742000F23F20B0FB85
:10691000F2F02B682B68834204D900232370F8BD62
:106920000123E9E71148124E0378296856F823201D
:10693000104F511A3A68521A29683A6046F82310E3
:106940000A210932B2FBF1F20B4D0133DBB22A60AE
:10695000B3FBF1F201FB12330370DEE7962D00204A
:10696000FC1000202C11002040420F00972D002029
:10697000041100200011002030110020014B186884
:10698000704700BF30110020F8B503212C2014F00F
:10699000FCFF04264FF480120D4C0E4B0E4F04F5F5
:1069A00000555A662C206F676E672F672E6700F0C0
:1069B000F3F82C2000F0AAF84FF0007204F5805391
:1069C0005F675E67AA624FF480529A62F8BD00BFAB
:1069D0000040005A00900050010000A0064B074AFA
:1069E000996D11F0050F01D0117811B10028F7D180
:1069F00070470120704700BF0040005A982D0020CA
:106A0000164B10B51C6F14F0040111D0144A116715
:106A1000082191629B6DDA0701D4FFF749FF00F06E
:106A2000EDFF00F0CDFF01201EF0F2F91FF059FF3D
:106A3000E30706D501220A4B1A67FFF74FFF00F064
:106A4000BFFF14F000521CBF054B1A67002CBEBFDD
:106A50004FF00042024B1A6710BD00BF0040005AC1
:106A60000060005A0028ACBF00F16040064B4FEABE
:106A70000111C9B2ABBF00F5614000F00F0080F812
:106A800000131954704700BF14ED00E00028ABBF9D
:106A900000F16040054B00F5614000F00F00ACBF15
:106AA00090F80003185C0009704700BF14ED00E087
:106AB00008B51FF0BFFC0B4B1A7872B901221A708F
:106AC0001FF0B3FC6FF0040210460132052152B2F0
:106AD000FFF7C8FF4C2AF7D108BDBDE808401FF0FA
:106AE000A4BC00BF992D002000280CDB0122064920
:106AF000430900F01F008240203341F82320BFF3F8
:106B00004F8FBFF36F8F704700E100E0002807DB75
:106B100001234109034A00F01F00834042F821305D
:106B2000704700BF00E100E0054B421153F82230EE
:106B300000F01F0023FA00F0C04300F0010070478E
:106B400000E100E0014608B5EFF31083DB0702D552
:106B50000122104608BDFFF7E7FF02460028F7D1E3
:106B600048B2FFF793FF0146EFF3118313B1B0EB87
:106B7000131FEDD2074B5B68C3F30803002BE8D06B
:106B8000103B58B2FFF782FF814234BF002201223E
:106B9000DFE700BF00ED00E0002808DB0122430929
:106BA000034900F01F008240603341F82320704702
:106BB00000E100E073B504461FF033FC05461FF00A
:106BC0008AFF60B10E4E3378FF2B8DF8073006D167
:106BD0000DF10700FCF7C0FB9DF807303370094B3F
:106BE00028461C601FF018FC1FF075FF28B12246D4
:106BF00000209DF8071014F001F8002002B070BDCD
:106C0000CC3300203411002073B51FF00AFC0D4D69
:106C10000D4B2E781C681FF0FFFB1FF05CFF38B196
:106C2000FF2E05D00020297801AA13F0E0FF019C77
:106C30002CB91FF0F6FB054B1C681FF0EDFB20463E
:106C400002B070BDCC330020341100203811002078
:106C500010B504461FF0E5FB024B1C601FF0DCFB87
:106C6000002010BD3811002038B50446D0F870312E
:106C70001D68AB6C5906FCD5002394F879111A46AF
:106C800094F87801FEF7CCFE002394F87B111A46A5
:106C900094F87A01FEF7C4FE94F88031DA0707D53C
:106CA000002394F87D111A4694F87C01FEF7B8FE93
:106CB00094F880319B0707D5002394F87F111A467A
:106CC00094F87E01FEF7ACFE012205F500531A652B
:106CD000042200211A652846094D14F0DDF9D4F884
:106CE00074011FF043FD284604F5C27113F073FFD1
:106CF0002B6813B9034800F0D5FD002038BD00BF54
:106D00003C11002040110020012910B502D90229B0
:106D100014D010BD134B1C68A4F5C27414F5C27FC7
:106D2000F7D0D4F874011FF01EFDD4F8703105219E
:106D3000186814F0B1F9D4F88441EDE7094B1C68E8
:106D4000A4F5C27414F5C27FE3D094F8973033B938
:106D500094F895301BB9D4F874011FF007FDD4F8EE
:106D60008441EDE73C1100202DE9F0471D461368F2
:106D70008EB01F6891F8313081468846144606AEC1
:106D8000002B00F0F180DFF820C2BCE80F000FC636
:106D90009CE80F0086E80F001822002168461BF0CF
:106DA0000DFFA3680893237B012B00F0E080022BEA
:106DB0000CBF4FF440730023ADF82630637B4FF0D7
:106DC000010A032B8CBF4FF480536C4ACDF834D0AA
:106DD00098BF32F813308DF806A0ADF82830A37BA9
:106DE00029465A1E022A88BF0023654A8DF80030C2
:106DF000D8F8383048461A60624A5A60624A9A6047
:106E0000624ADA60424600F047FB0646002840F03E
:106E1000A78023695E48C5F87431237E85F87B31ED
:106E2000E37D85F87A31A37D85F87931637D85F836
:106E30007831A37E85F87D31637E85F87C31237FB0
:106E400085F87F31E37E85F87E312368C5F870319F
:106E50001FF089FC53460422A17D607DFEF7E0FD12
:106E60005346217E0222E07DFEF7DAFD85F880613F
:106E700020691FF078FC98F83130384606A9002BBD
:106E800078D014F030F995F8803143F0040385F898
:106E900080311421227D3F4B03EB4210C0F8941443
:106EA00094F816C0617D253241EA0C41C0F8AC145B
:106EB000207EE17D03EB421341EA00415960A37B50
:106EC00003F0FD03012B0BD195F88031022243F032
:106ED000010385F88031A17E0023607EFEF7A0FDCE
:106EE000A37B023B012B0BD895F88031042243F0A1
:106EF000020385F88031217F0023E07EFEF790FDBC
:106F000095F88031DB0717D5A17E627E237D42EAAA
:106F1000014241F29C415B0103F1A04303F5703350
:106F20005A5041F2944202219950217FE27E03F5AA
:106F3000A55342EA01421A60174B1B681BB9174957
:106F4000174800F09DFC144805F5C27113F030FE9F
:106F5000144A07F5005305213846DA6414F09CF80A
:106F600030460EB0BDE8F087DFF840C00DE74FF4C3
:106F7000007321E714F0BBF88BE700BF8C95030882
:106F800041BA020873BA020857BA0208696C0108CC
:106F90005C95030800C003503C110020C031002064
:106FA00040110020FF3F0D0394950308B49503089A
:106FB000034B0222186800238068194611F0F0BDC7
:106FC000B8320020302337B5007D0DF1070143436F
:106FD00003F1A04303F58023DD6E1C6F1CF00AFF54
:106FE0009DF8070040B9054B9D4203D184F002048F
:106FF000C4F3400003B030BD0120FBE79A2D002010
:107000003021037D02464B4303F1A04303F5802367
:10701000D86E07491B6F884208D113F0020006D0D2
:10702000106A136D1B1A5842584170470020704770
:107030009A2D00207FB504460D4690F8A1601EF001
:1070400037F8022817D1D5B1AEB9114B6846CDE952
:10705000003604F1FC030293202303931FF057FD35
:10706000C4F8F800204614F066FD20B90121D4F8D8
:10707000F8001FF062FD84F8A15004B070BD002E2E
:10708000F9D0D4F8F8001FF0E0FDC4F8F850F2E7AA
:10709000D49503082DE9F743D0E9043404F17C07C3
:1070A000D0F80C900646013B102200213846D4F857
:1070B00074809DB21BF082FD0B4BC5F30A0543EAB9
:1070C0000513C4E91F39012394F8780084F88C3043
:1070D000C4F884803A46054B009604F16401FCF73D
:1070E0004DFD03B0BDE8F0830000103053BB020833
:1070F0002DE9F04F04464FF444764FF030093F4DF0
:1071000000F138071022002185B038461BF056FDEB
:107110006687C4E90F55207DFCF756FD102200213B
:1071200038461BF04BFD6687207D354EC4E90F5570
:1071300009FB0063DB6EAB4204D105B0BDE8F04F44
:10714000FCF762BD0DF10B011CF054FE9DF80B50D5
:10715000002D4CD1204614F0D2FC804603A9207D9E
:107160001CF06AFE039B2946013B1FFA83FB04F1D6
:1071700018031D4610221846D4F810A01BF01EFD5F
:10718000A169204ACBF30A031B010A4043F0407374
:107190001343C4E9063A237DC4F8208009FB036643
:1071A000336F94F824205B0863F3410284F82420B1
:1071B000326F94F8243025F0030562F3000384F85D
:1071C0002430336F626A9B0863F39F0245F0020527
:1071D0006262656400943A4621460B4B207DFCF7C1
:1071E000CDFC207DFCF710FD05B0BDE8F08F94F8D4
:1071F00044306FF3410384F84430EBE79A2D0020CC
:10720000000004500F80FFFCC1BB02082DE9F04FC5
:107210008DB004469946089106921DF049FF022858
:10722000054613D14FF0FF31D4F8A4001FF05CFDE8
:10723000002840F02C8194F8A1303BB14FF0FF338F
:107240002A460121D4F8F8001FF0CBFC0023C9F82E
:107250000030D9F80050069B5E1B00F0A280089B0E
:107260005D1900F09E80204614F065FC83460028DE
:1072700040F09780204614F042FC216D94F89AA0CB
:1072800088429BBFD4E912329B18431A5B1A9E4274
:1072900028BF1E46BAF1000F00F0BB801FF0CAF8ED
:1072A000236D079020460993FFF78CFE3746099B14
:1072B000804698198342D4F89C1040F08380D4E92A
:1072C00012030344994208BFC4F89C0007981FF0BA
:1072D000ACF8C246207DFCF777FC0DF12F01207D34
:1072E0001CF088FD204614F00AFC236D834698426A
:1072F00040F29D80A26CB5B2934240F09080099319
:1073000004F12808236910220021404607931BF04E
:1073100055FC3021079B013DE362099BC5F30A053B
:107320002363237D2D014B4328F0030803F1A04381
:1073300045F0407548F0020203F58023A5621A6704
:10734000236DD4E9121233440A44934208BF0B461A
:107350005B4523650DD194F8A13023B10121D4F808
:10736000F8001FF017FC0123204684F85430FFF783
:10737000BFFE207DFCF748FC94F89A303BB1BAF18F
:10738000000F04D0236E112120465B68984747B157
:10739000D9F80030069A3B449342C9F80030FFF414
:1073A00058AF1DF085FE022803D1D4F8A4001FF0C9
:1073B000C0FCD9F80030002B14BF00201B200DB0FA
:1073C000BDE8F08F013303F1FF3C614510D1C4F8F3
:1073D0009C3013F8011C112901D0132915D1013F4C
:1073E000A1F1110251425141D34684F8A01061E746
:1073F00013F8011C01F0FD0CBCF1110F06D1013F87
:10740000BBF1000F3FF456AFEAE7D34605F8011B86
:1074100050E7324628461BF0DCFB37465AE7238DFF
:10742000C3F30A12154465F30E13238588E79DF80C
:107430002F30207D93B93023584300F1A04000F550
:107440008020426E436EC2F30A1223F4FF4332449B
:1074500023F0700343EA0213436671E70D4B049473
:1074600003930023CDE90163012300935A46236966
:10747000216813F0F6FC3022237D534303F1A0432F
:1074800003F580235A6E22F480125A6658E7284684
:1074900095E700BFC1BB02082DE9F0410C46154637
:1074A00006464FF4B872002190B020461BF086FBD0
:1074B0002746AC46BCE80F000FC7DCF8003005F1EA
:1074C000140C3B6004F16407BCE80F000FC7DCF844
:1074D0000030EA6A3B60AB6AC4E9132395F83020B8
:1074E000A36484F8992095F83320C4F89C300123D4
:1074F00084F89A2084F8A03084F85430AB6B23666B
:1075000095F8313084F89830544B34607360544BA4
:10751000B360544BF360544B7361544BB361544BA1
:107520003361FCF7F7FA10B1524B98420FD10021AA
:1075300007A8FCF777FA014648B9079B07A8237507
:10754000FCF770FA074630B1207DFCF7BDFA102039
:1075500010B0BDE8F081079B4FF0010884F8783047
:10756000454B7362454BB362454B84F8A180CDE92E
:10757000083004F1A8030A93502308A80B931FF0C6
:1075800076FB404BC4F8A400CDE9083708A804F501
:1075900090730A931FF06BFB3B4BC4F81C01CDE9C1
:1075A0000C3704F1FC030E9320230CA80F931FF05B
:1075B000AEFA364BC4F8F800F361354B95F832104B
:1075C0003362204684F8967084F8958014F0E7FBC7
:1075D000AB6B93F91100FFF7DFFAAB6B93F9110076
:1075E000FFF794FA207DFCF7EFFA0028AFD1294B82
:1075F0000494CDE90203E36CCDE900832369A26C16
:107600002168207D13F02DFC0028A0D13022237D9D
:107610004FF48011534342F2640203F1A04303F597
:1076200080239950AB6B93F91000FFF7B5FAAB6B61
:1076300093F91000FFF76AFA04F1900013F0B5FA1D
:107640003046FFF705FB2046FFF752FD207DFCF793
:10765000DBFA003818BF0120000179E74DBC0208B1
:107660007BBB02080D720108E7BA0208EDBA0208F6
:1076700017BE0208038000F035700108F9BA02084D
:10768000EB950308F5950308D49503089FBD020800
:10769000F3BA0208C1BB020870B50568144E2C7D10
:1076A0002046FCF791FA302303FB0463DA6E114B9A
:1076B0009A420FD12846FFF785FC80B11EF0BAFE32
:1076C00001230D4AA3405365A2F580529362536390
:1076D0001EF0ABFE2046BDE87040FCF795BA284688
:1076E000FFF78EFC0028F5D10123A340B364F1E736
:1076F000000004509A2D00200020045007B5684671
:1077000000F028F8DDE900010022034B03B05DF82A
:1077100004EB14F0F7BE00BF4811002007B500933A
:1077200013460A460146034814F034FC03B05DF8E2
:1077300004FB00BF4811002007B5009313460A461A
:107740000146034814F00BFE03B05DF804FB00BFD4
:10775000481100200249034A0160521A42607047F2
:10776000F03300200000042000487047481100203A
:10777000BFF35F8F074B5A6A22F480325A62D3F804
:10778000942022F00102C3F89420BFF34F8FBFF37F
:107790006F8F704700ED00E038B5FFF7E9FF284A2A
:1077A0002848D2F8C030284D23F0FF0343F0A0034F
:1077B000C2F8C030254B04689D4204F101011ED17E
:1077C000234BC2F89840C2F89C3003F57F3303F294
:1077D000FE33C2F8A0300160BFF35F8F0522184B63
:1077E000C3F894205A6A42F480325A62BFF34F8F32
:1077F000BFF36F8FBFF34F8FBFF36F8F38BD23F091
:107800001F03203BB3F1005F09D3C2F89840104C2E
:1078100043F00103C2F89C40C2F8A03001600D4B58
:107820000168074A23F01F0343F00303C2F89810CE
:10783000C2F89C30084B0131C2F8A030CBE700BF42
:1078400000ED00E0701100202030002020300020EA
:10785000030000203F300020E1FF0320BFF34F8FE3
:107860000549064BCA6802F4E0621343CB60BFF3DC
:107870004F8F00BFFDE700BF00ED00E00400FA05F8
:1078800038B5416004461EF0CCFD0546214604484B
:1078900013F08EF92846BDE838401EF0BDBD00BF8C
:1078A0007411002038B505461EF0BBFD044629467C
:1078B000034813F090F92046BDE838401EF0ACBDF7
:1078C00074110020014813F070B900BF741100203A
:1078D00070B51EF0A6FD184E054618481EF043FF71
:1078E0003378DBB900F072F9044620B128461EF067
:1078F00093FD204670BD00F0D9F9FFF7E3FF1FF0BC
:1079000003F80F4B1C601DF027FA0E4B0E4A18604F
:10791000536F43F00103536714F014FE00F0A2F814
:1079200014F026FE094B002418600123284633700A
:107930001EF072FDDDE700BFA72D00205C95030857
:1079400078110020A0110020004000507C11002080
:1079500038B504461EF065FD0F4D02462B78FF2B0F
:1079600004D1B4B1BDE838401EF056BD1BB9002C9F
:10797000F8D0012103E0002C0CBFFF2101210B44B2
:10798000DBB22B70B3FA83F304495B0910460B702A
:10799000E8E71946F3E700BFA42D0020A32D00203F
:1079A000054B1B685843054B00F5742000F23F203F
:1079B000B0FBF3F0704700BFA011002040420F0061
:1079C00010B5094B1B786BB1084C237853B11CF0F0
:1079D000B3FF0023064A237013700123054A137076
:1079E000054A137010BD00BFA62D0020A12D002058
:1079F000A02D00209C2D00209B2D0020034B1B78E8
:107A000013B10122024B1A70704700BFA62D00204F
:107A1000A12D002073B5114E0446337883420FD058
:107A20004FF400730E4DADF8043058B101A8FDF7C6
:107A30004BFC4020FFF7B4FF2B68181A2860347005
:107A400002B070BD8DF8050001A8FDF73DFC402097
:107A5000FFF7A6FF2B681844F0E700BFCD330020E6
:107A6000A411002073B5002401A88DF80440FDF78F
:107A7000BFFC2046224CFFF7CDFFD4F80031214A4D
:107A800003F0030313604FF480121F4B1F4D5A661F
:107A90004FF400325A661CF0B7FE1D4B1B780BB337
:107AA000D4F8003103F00303022B23D0032B24D09E
:107AB000012B17D11CF0CEF8024698B1154B164E8B
:107AC000DC6800231946C4F30B04013404EB84047E
:107AD0000138E4FB060110F0C1FEFFF761FF2B68DF
